{
  "contractName": "AccessControl",
  "abi": [
    {
      "inputs": [],
      "stateMutability": "nonpayable",
      "type": "constructor"
    },
    {
      "anonymous": false,
      "inputs": [
        {
          "indexed": true,
          "internalType": "address",
          "name": "account",
          "type": "address"
        }
      ],
      "name": "AdminAdded",
      "type": "event"
    },
    {
      "anonymous": false,
      "inputs": [
        {
          "indexed": true,
          "internalType": "address",
          "name": "account",
          "type": "address"
        }
      ],
      "name": "AdminRemoved",
      "type": "event"
    },
    {
      "anonymous": false,
      "inputs": [
        {
          "indexed": true,
          "internalType": "uint256",
          "name": "fileId",
          "type": "uint256"
        },
        {
          "indexed": false,
          "internalType": "string",
          "name": "ipfsHash",
          "type": "string"
        }
      ],
      "name": "FileHashAdded",
      "type": "event"
    },
    {
      "anonymous": false,
      "inputs": [
        {
          "indexed": true,
          "internalType": "address",
          "name": "previousOwner",
          "type": "address"
        },
        {
          "indexed": true,
          "internalType": "address",
          "name": "newOwner",
          "type": "address"
        }
      ],
      "name": "OwnershipTransferred",
      "type": "event"
    },
    {
      "inputs": [
        {
          "internalType": "uint256",
          "name": "",
          "type": "uint256"
        }
      ],
      "name": "fileHashes",
      "outputs": [
        {
          "internalType": "string",
          "name": "",
          "type": "string"
        }
      ],
      "stateMutability": "view",
      "type": "function"
    },
    {
      "inputs": [],
      "name": "owner",
      "outputs": [
        {
          "internalType": "address",
          "name": "",
          "type": "address"
        }
      ],
      "stateMutability": "view",
      "type": "function"
    },
    {
      "inputs": [],
      "name": "renounceOwnership",
      "outputs": [],
      "stateMutability": "nonpayable",
      "type": "function"
    },
    {
      "inputs": [
        {
          "internalType": "address",
          "name": "newOwner",
          "type": "address"
        }
      ],
      "name": "transferOwnership",
      "outputs": [],
      "stateMutability": "nonpayable",
      "type": "function"
    },
    {
      "inputs": [
        {
          "internalType": "address",
          "name": "account",
          "type": "address"
        }
      ],
      "name": "isAdmin",
      "outputs": [
        {
          "internalType": "bool",
          "name": "",
          "type": "bool"
        }
      ],
      "stateMutability": "view",
      "type": "function"
    },
    {
      "inputs": [
        {
          "internalType": "address",
          "name": "account",
          "type": "address"
        }
      ],
      "name": "addAdmin",
      "outputs": [],
      "stateMutability": "nonpayable",
      "type": "function"
    },
    {
      "inputs": [
        {
          "internalType": "address",
          "name": "account",
          "type": "address"
        }
      ],
      "name": "removeAdmin",
      "outputs": [],
      "stateMutability": "nonpayable",
      "type": "function"
    },
    {
      "inputs": [
        {
          "internalType": "string",
          "name": "ipfsHash",
          "type": "string"
        }
      ],
      "name": "addFileHash",
      "outputs": [
        {
          "internalType": "uint256",
          "name": "",
          "type": "uint256"
        }
      ],
      "stateMutability": "nonpayable",
      "type": "function"
    },
    {
      "inputs": [
        {
          "internalType": "uint256",
          "name": "fileId",
          "type": "uint256"
        }
      ],
      "name": "getFileHash",
      "outputs": [
        {
          "internalType": "string",
          "name": "",
          "type": "string"
        }
      ],
      "stateMutability": "view",
      "type": "function"
    }
  ],
  "bytecode": "0x608060405234801561001057600080fd5b5061002d61002261003a60201b60201c565b61004260201b60201c565b6000600381905550610106565b600033905090565b60008060009054906101000a900473ffffffffffffffffffffffffffffffffffffffff169050816000806101000a81548173ffffffffffffffffffffffffffffffffffffffff021916908373ffffffffffffffffffffffffffffffffffffffff1602179055508173ffffffffffffffffffffffffffffffffffffffff168173ffffffffffffffffffffffffffffffffffffffff167f8be0079c531659141344cd1fd0a4f28419497f9722a3daafe3b4186f6b6457e060405160405180910390a35050565b61107e806101156000396000f3fe608060405234801561001057600080fd5b50600436106100935760003560e01c80638da5cb5b116100665780638da5cb5b1461010a578063ba89949e14610128578063c110f4c914610158578063eb13113514610188578063f2fde38b146101b857610093565b80631785f53c1461009857806324d7806c146100b457806370480275146100e4578063715018a614610100575b600080fd5b6100b260048036038101906100ad9190610819565b6101d4565b005b6100ce60048036038101906100c99190610819565b6101e8565b6040516100db9190610861565b60405180910390f35b6100fe60048036038101906100f99190610819565b61023e565b005b610108610252565b005b610112610266565b60405161011f919061088b565b60405180910390f35b610142600480360381019061013d91906109ec565b61028f565b60405161014f9190610a4e565b60405180910390f35b610172600480360381019061016d9190610a95565b61035a565b60405161017f9190610b41565b60405180910390f35b6101a2600480360381019061019d9190610a95565b6103fa565b6040516101af9190610b41565b60405180910390f35b6101d260048036038101906101cd9190610819565b61049f565b005b6101dc610522565b6101e5816105a0565b50565b6000600160008373ffffffffffffffffffffffffffffffffffffffff1673ffffffffffffffffffffffffffffffffffffffff16815260200190815260200160002060009054906101000a900460ff169050919050565b610246610522565b61024f8161063e565b50565b61025a610522565b61026460006106db565b565b60008060009054906101000a900473ffffffffffffffffffffffffffffffffffffffff16905090565b600061029a336101e8565b6102d9576040517f08c379a00000000000000000000000000000000000000000000000000000000081526004016102d090610bd5565b60405180910390fd5b60006003549050826002600083815260200190815260200160002090816103009190610e01565b506003600081548092919061031490610f02565b9190505550807fd14e25ed71a404367461d2269b2413ef73b82aae51eaf6f172af69e3bcc32ee3846040516103499190610b41565b60405180910390a280915050919050565b6002602052806000526040600020600091509050805461037990610c24565b80601f01602080910402602001604051908101604052809291908181526020018280546103a590610c24565b80156103f25780601f106103c7576101008083540402835291602001916103f2565b820191906000526020600020905b8154815290600101906020018083116103d557829003601f168201915b505050505081565b606060026000838152602001908152602001600020805461041a90610c24565b80601f016020809104026020016040519081016040528092919081815260200182805461044690610c24565b80156104935780601f1061046857610100808354040283529160200191610493565b820191906000526020600020905b81548152906001019060200180831161047657829003601f168201915b50505050509050919050565b6104a7610522565b600073ffffffffffffffffffffffffffffffffffffffff168173ffffffffffffffffffffffffffffffffffffffff1603610516576040517f08c379a000000000000000000000000000000000000000000000000000000000815260040161050d90610fbc565b60405180910390fd5b61051f816106db565b50565b61052a61079f565b73ffffffffffffffffffffffffffffffffffffffff16610548610266565b73ffffffffffffffffffffffffffffffffffffffff161461059e576040517f08c379a000000000000000000000000000000000000000000000000000000000815260040161059590611028565b60405180910390fd5b565b6000600160008373ffffffffffffffffffffffffffffffffffffffff1673ffffffffffffffffffffffffffffffffffffffff16815260200190815260200160002060006101000a81548160ff0219169083151502179055508073ffffffffffffffffffffffffffffffffffffffff167fa3b62bc36326052d97ea62d63c3d60308ed4c3ea8ac079dd8499f1e9c4f80c0f60405160405180910390a250565b60018060008373ffffffffffffffffffffffffffffffffffffffff1673ffffffffffffffffffffffffffffffffffffffff16815260200190815260200160002060006101000a81548160ff0219169083151502179055508073ffffffffffffffffffffffffffffffffffffffff167f44d6d25963f097ad14f29f06854a01f575648a1ef82f30e562ccd3889717e33960405160405180910390a250565b60008060009054906101000a900473ffffffffffffffffffffffffffffffffffffffff169050816000806101000a81548173ffffffffffffffffffffffffffffffffffffffff021916908373ffffffffffffffffffffffffffffffffffffffff1602179055508173ffffffffffffffffffffffffffffffffffffffff168173ffffffffffffffffffffffffffffffffffffffff167f8be0079c531659141344cd1fd0a4f28419497f9722a3daafe3b4186f6b6457e060405160405180910390a35050565b600033905090565b6000604051905090565b600080fd5b600080fd5b600073ffffffffffffffffffffffffffffffffffffffff82169050919050565b60006107e6826107bb565b9050919050565b6107f6816107db565b811461080157600080fd5b50565b600081359050610813816107ed565b92915050565b60006020828403121561082f5761082e6107b1565b5b600061083d84828501610804565b91505092915050565b60008115159050919050565b61085b81610846565b82525050565b60006020820190506108766000830184610852565b92915050565b610885816107db565b82525050565b60006020820190506108a0600083018461087c565b92915050565b600080fd5b600080fd5b6000601f19601f8301169050919050565b7f4e487b7100000000000000000000000000000000000000000000000000000000600052604160045260246000fd5b6108f9826108b0565b810181811067ffffffffffffffff82111715610918576109176108c1565b5b80604052505050565b600061092b6107a7565b905061093782826108f0565b919050565b600067ffffffffffffffff821115610957576109566108c1565b5b610960826108b0565b9050602081019050919050565b82818337600083830152505050565b600061098f61098a8461093c565b610921565b9050828152602081018484840111156109ab576109aa6108ab565b5b6109b684828561096d565b509392505050565b600082601f8301126109d3576109d26108a6565b5b81356109e384826020860161097c565b91505092915050565b600060208284031215610a0257610a016107b1565b5b600082013567ffffffffffffffff811115610a2057610a1f6107b6565b5b610a2c848285016109be565b91505092915050565b6000819050919050565b610a4881610a35565b82525050565b6000602082019050610a636000830184610a3f565b92915050565b610a7281610a35565b8114610a7d57600080fd5b50565b600081359050610a8f81610a69565b92915050565b600060208284031215610aab57610aaa6107b1565b5b6000610ab984828501610a80565b91505092915050565b600081519050919050565b600082825260208201905092915050565b60005b83811015610afc578082015181840152602081019050610ae1565b60008484015250505050565b6000610b1382610ac2565b610b1d8185610acd565b9350610b2d818560208601610ade565b610b36816108b0565b840191505092915050565b60006020820190508181036000830152610b5b8184610b08565b905092915050565b7f416363657373436f6e74726f6c3a2063616c6c6572206973206e6f7420616e2060008201527f61646d696e000000000000000000000000000000000000000000000000000000602082015250565b6000610bbf602583610acd565b9150610bca82610b63565b604082019050919050565b60006020820190508181036000830152610bee81610bb2565b9050919050565b7f4e487b7100000000000000000000000000000000000000000000000000000000600052602260045260246000fd5b60006002820490506001821680610c3c57607f821691505b602082108103610c4f57610c4e610bf5565b5b50919050565b60008190508160005260206000209050919050565b60006020601f8301049050919050565b600082821b905092915050565b600060088302610cb77fffffffffffffffffffffffffffffffffffffffffffffffffffffffffffffffff82610c7a565b610cc18683610c7a565b95508019841693508086168417925050509392505050565b6000819050919050565b6000610cfe610cf9610cf484610a35565b610cd9565b610a35565b9050919050565b6000819050919050565b610d1883610ce3565b610d2c610d2482610d05565b848454610c87565b825550505050565b600090565b610d41610d34565b610d4c818484610d0f565b505050565b5b81811015610d7057610d65600082610d39565b600181019050610d52565b5050565b601f821115610db557610d8681610c55565b610d8f84610c6a565b81016020851015610d9e578190505b610db2610daa85610c6a565b830182610d51565b50505b505050565b600082821c905092915050565b6000610dd860001984600802610dba565b1980831691505092915050565b6000610df18383610dc7565b9150826002028217905092915050565b610e0a82610ac2565b67ffffffffffffffff811115610e2357610e226108c1565b5b610e2d8254610c24565b610e38828285610d74565b600060209050601f831160018114610e6b5760008415610e59578287015190505b610e638582610de5565b865550610ecb565b601f198416610e7986610c55565b60005b82811015610ea157848901518255600182019150602085019450602081019050610e7c565b86831015610ebe5784890151610eba601f891682610dc7565b8355505b6001600288020188555050505b505050505050565b7f4e487b7100000000000000000000000000000000000000000000000000000000600052601160045260246000fd5b6000610f0d82610a35565b91507fffffffffffffffffffffffffffffffffffffffffffffffffffffffffffffffff8203610f3f57610f3e610ed3565b5b600182019050919050565b7f4f776e61626c653a206e6577206f776e657220697320746865207a65726f206160008201527f6464726573730000000000000000000000000000000000000000000000000000602082015250565b6000610fa6602683610acd565b9150610fb182610f4a565b604082019050919050565b60006020820190508181036000830152610fd581610f99565b9050919050565b7f4f776e61626c653a2063616c6c6572206973206e6f7420746865206f776e6572600082015250565b6000611012602083610acd565b915061101d82610fdc565b602082019050919050565b6000602082019050818103600083015261104181611005565b905091905056fea26469706673582212209d7869520807b5e7496538bfa15da6b2602ab9f845d4162e51da799cf2d0af2364736f6c63430008130033",
  "immutableReferences": {},
  "source": "pragma solidity ^0.8.0;\r\n\r\nimport \"@openzeppelin/contracts/access/Ownable.sol\";\r\n\r\ncontract AccessControl is Ownable {\r\n    mapping(address => bool) private _admins;\r\n    mapping(uint256 => string) public fileHashes;\r\n    uint256 private fileCounter;\r\n\r\n    event AdminAdded(address indexed account);\r\n    event AdminRemoved(address indexed account);\r\n    event FileHashAdded(uint256 indexed fileId, string ipfsHash);\r\n\r\n    modifier onlyAdmin() {\r\n        require(isAdmin(msg.sender), \"AccessControl: caller is not an admin\");\r\n        _;\r\n    }\r\n\r\n    constructor() {\r\n        fileCounter = 0;\r\n    }\r\n\r\n    function isAdmin(address account) public view returns (bool) {\r\n        return _admins[account];\r\n    }\r\n\r\n    function addAdmin(address account) public onlyOwner {\r\n        _addAdmin(account);\r\n    }\r\n\r\n    function removeAdmin(address account) public onlyOwner {\r\n        _removeAdmin(account);\r\n    }\r\n\r\n    function _addAdmin(address account) internal {\r\n        _admins[account] = true;\r\n        emit AdminAdded(account);\r\n    }\r\n\r\n    function _removeAdmin(address account) internal {\r\n        _admins[account] = false;\r\n        emit AdminRemoved(account);\r\n    }\r\n\r\n    function addFileHash(string memory ipfsHash) public onlyAdmin returns (uint256) {\r\n        uint256 currentFileId = fileCounter;\r\n        fileHashes[currentFileId] = ipfsHash;\r\n        fileCounter++;\r\n        emit FileHashAdded(currentFileId, ipfsHash);\r\n        return currentFileId;\r\n    }\r\n\r\n    function getFileHash(uint256 fileId) public view virtual returns (string memory) {\r\n        return fileHashes[fileId];\r\n    }\r\n}",
  "sourcePath": "C:\\Users\\emdd0\\metados\\contracts\\AccessControl.sol",
  "compiler": {
    "name": "solc",
    "version": "0.8.19+commit.7dd6d404.Emscripten.clang"
  },
  "schemaVersion": "3.4.13",
  "updatedAt": "2023-05-04T03:12:51.907Z",
  "devdoc": {
    "kind": "dev",
    "methods": {
      "owner()": {
        "details": "Returns the address of the current owner."
      },
      "renounceOwnership()": {
        "details": "Leaves the contract without owner. It will not be possible to call `onlyOwner` functions anymore. Can only be called by the current owner. NOTE: Renouncing ownership will leave the contract without an owner, thereby removing any functionality that is only available to the owner."
      },
      "transferOwnership(address)": {
        "details": "Transfers ownership of the contract to a new account (`newOwner`). Can only be called by the current owner."
      }
    },
    "version": 1
  },
  "userdoc": {
    "kind": "user",
    "methods": {},
    "version": 1
  }
}