{
  "contractName": "FileStorage",
  "abi": [
    {
      "inputs": [],
      "stateMutability": "nonpayable",
      "type": "constructor"
    },
    {
      "anonymous": false,
      "inputs": [
        {
          "indexed": true,
          "internalType": "address",
          "name": "account",
          "type": "address"
        }
      ],
      "name": "AdminAdded",
      "type": "event"
    },
    {
      "anonymous": false,
      "inputs": [
        {
          "indexed": true,
          "internalType": "address",
          "name": "account",
          "type": "address"
        }
      ],
      "name": "AdminRemoved",
      "type": "event"
    },
    {
      "anonymous": false,
      "inputs": [
        {
          "indexed": true,
          "internalType": "address",
          "name": "owner",
          "type": "address"
        },
        {
          "indexed": true,
          "internalType": "address",
          "name": "approved",
          "type": "address"
        },
        {
          "indexed": true,
          "internalType": "uint256",
          "name": "tokenId",
          "type": "uint256"
        }
      ],
      "name": "Approval",
      "type": "event"
    },
    {
      "anonymous": false,
      "inputs": [
        {
          "indexed": true,
          "internalType": "address",
          "name": "owner",
          "type": "address"
        },
        {
          "indexed": true,
          "internalType": "address",
          "name": "operator",
          "type": "address"
        },
        {
          "indexed": false,
          "internalType": "bool",
          "name": "approved",
          "type": "bool"
        }
      ],
      "name": "ApprovalForAll",
      "type": "event"
    },
    {
      "anonymous": false,
      "inputs": [
        {
          "indexed": true,
          "internalType": "uint256",
          "name": "fileId",
          "type": "uint256"
        },
        {
          "indexed": false,
          "internalType": "string",
          "name": "ipfsHash",
          "type": "string"
        }
      ],
      "name": "FileHashAdded",
      "type": "event"
    },
    {
      "anonymous": false,
      "inputs": [
        {
          "indexed": true,
          "internalType": "address",
          "name": "previousOwner",
          "type": "address"
        },
        {
          "indexed": true,
          "internalType": "address",
          "name": "newOwner",
          "type": "address"
        }
      ],
      "name": "OwnershipTransferred",
      "type": "event"
    },
    {
      "anonymous": false,
      "inputs": [
        {
          "indexed": true,
          "internalType": "address",
          "name": "from",
          "type": "address"
        },
        {
          "indexed": true,
          "internalType": "address",
          "name": "to",
          "type": "address"
        },
        {
          "indexed": true,
          "internalType": "uint256",
          "name": "tokenId",
          "type": "uint256"
        }
      ],
      "name": "Transfer",
      "type": "event"
    },
    {
      "inputs": [
        {
          "internalType": "address",
          "name": "account",
          "type": "address"
        }
      ],
      "name": "addAdmin",
      "outputs": [],
      "stateMutability": "nonpayable",
      "type": "function"
    },
    {
      "inputs": [
        {
          "internalType": "string",
          "name": "ipfsHash",
          "type": "string"
        }
      ],
      "name": "addFileHash",
      "outputs": [
        {
          "internalType": "uint256",
          "name": "",
          "type": "uint256"
        }
      ],
      "stateMutability": "nonpayable",
      "type": "function"
    },
    {
      "inputs": [
        {
          "internalType": "address",
          "name": "to",
          "type": "address"
        },
        {
          "internalType": "uint256",
          "name": "tokenId",
          "type": "uint256"
        }
      ],
      "name": "approve",
      "outputs": [],
      "stateMutability": "nonpayable",
      "type": "function"
    },
    {
      "inputs": [
        {
          "internalType": "address",
          "name": "owner",
          "type": "address"
        }
      ],
      "name": "balanceOf",
      "outputs": [
        {
          "internalType": "uint256",
          "name": "",
          "type": "uint256"
        }
      ],
      "stateMutability": "view",
      "type": "function"
    },
    {
      "inputs": [
        {
          "internalType": "uint256",
          "name": "",
          "type": "uint256"
        }
      ],
      "name": "fileHashes",
      "outputs": [
        {
          "internalType": "string",
          "name": "",
          "type": "string"
        }
      ],
      "stateMutability": "view",
      "type": "function"
    },
    {
      "inputs": [
        {
          "internalType": "uint256",
          "name": "tokenId",
          "type": "uint256"
        }
      ],
      "name": "getApproved",
      "outputs": [
        {
          "internalType": "address",
          "name": "",
          "type": "address"
        }
      ],
      "stateMutability": "view",
      "type": "function"
    },
    {
      "inputs": [
        {
          "internalType": "address",
          "name": "account",
          "type": "address"
        }
      ],
      "name": "isAdmin",
      "outputs": [
        {
          "internalType": "bool",
          "name": "",
          "type": "bool"
        }
      ],
      "stateMutability": "view",
      "type": "function"
    },
    {
      "inputs": [
        {
          "internalType": "address",
          "name": "owner",
          "type": "address"
        },
        {
          "internalType": "address",
          "name": "operator",
          "type": "address"
        }
      ],
      "name": "isApprovedForAll",
      "outputs": [
        {
          "internalType": "bool",
          "name": "",
          "type": "bool"
        }
      ],
      "stateMutability": "view",
      "type": "function"
    },
    {
      "inputs": [],
      "name": "name",
      "outputs": [
        {
          "internalType": "string",
          "name": "",
          "type": "string"
        }
      ],
      "stateMutability": "view",
      "type": "function"
    },
    {
      "inputs": [],
      "name": "owner",
      "outputs": [
        {
          "internalType": "address",
          "name": "",
          "type": "address"
        }
      ],
      "stateMutability": "view",
      "type": "function"
    },
    {
      "inputs": [
        {
          "internalType": "uint256",
          "name": "tokenId",
          "type": "uint256"
        }
      ],
      "name": "ownerOf",
      "outputs": [
        {
          "internalType": "address",
          "name": "",
          "type": "address"
        }
      ],
      "stateMutability": "view",
      "type": "function"
    },
    {
      "inputs": [
        {
          "internalType": "address",
          "name": "account",
          "type": "address"
        }
      ],
      "name": "removeAdmin",
      "outputs": [],
      "stateMutability": "nonpayable",
      "type": "function"
    },
    {
      "inputs": [],
      "name": "renounceOwnership",
      "outputs": [],
      "stateMutability": "nonpayable",
      "type": "function"
    },
    {
      "inputs": [
        {
          "internalType": "address",
          "name": "from",
          "type": "address"
        },
        {
          "internalType": "address",
          "name": "to",
          "type": "address"
        },
        {
          "internalType": "uint256",
          "name": "tokenId",
          "type": "uint256"
        }
      ],
      "name": "safeTransferFrom",
      "outputs": [],
      "stateMutability": "nonpayable",
      "type": "function"
    },
    {
      "inputs": [
        {
          "internalType": "address",
          "name": "from",
          "type": "address"
        },
        {
          "internalType": "address",
          "name": "to",
          "type": "address"
        },
        {
          "internalType": "uint256",
          "name": "tokenId",
          "type": "uint256"
        },
        {
          "internalType": "bytes",
          "name": "data",
          "type": "bytes"
        }
      ],
      "name": "safeTransferFrom",
      "outputs": [],
      "stateMutability": "nonpayable",
      "type": "function"
    },
    {
      "inputs": [
        {
          "internalType": "address",
          "name": "operator",
          "type": "address"
        },
        {
          "internalType": "bool",
          "name": "approved",
          "type": "bool"
        }
      ],
      "name": "setApprovalForAll",
      "outputs": [],
      "stateMutability": "nonpayable",
      "type": "function"
    },
    {
      "inputs": [
        {
          "internalType": "bytes4",
          "name": "interfaceId",
          "type": "bytes4"
        }
      ],
      "name": "supportsInterface",
      "outputs": [
        {
          "internalType": "bool",
          "name": "",
          "type": "bool"
        }
      ],
      "stateMutability": "view",
      "type": "function"
    },
    {
      "inputs": [],
      "name": "symbol",
      "outputs": [
        {
          "internalType": "string",
          "name": "",
          "type": "string"
        }
      ],
      "stateMutability": "view",
      "type": "function"
    },
    {
      "inputs": [
        {
          "internalType": "uint256",
          "name": "tokenId",
          "type": "uint256"
        }
      ],
      "name": "tokenURI",
      "outputs": [
        {
          "internalType": "string",
          "name": "",
          "type": "string"
        }
      ],
      "stateMutability": "view",
      "type": "function"
    },
    {
      "inputs": [
        {
          "internalType": "address",
          "name": "from",
          "type": "address"
        },
        {
          "internalType": "address",
          "name": "to",
          "type": "address"
        },
        {
          "internalType": "uint256",
          "name": "tokenId",
          "type": "uint256"
        }
      ],
      "name": "transferFrom",
      "outputs": [],
      "stateMutability": "nonpayable",
      "type": "function"
    },
    {
      "inputs": [
        {
          "internalType": "address",
          "name": "newOwner",
          "type": "address"
        }
      ],
      "name": "transferOwnership",
      "outputs": [],
      "stateMutability": "nonpayable",
      "type": "function"
    },
    {
      "inputs": [
        {
          "internalType": "string",
          "name": "name",
          "type": "string"
        },
        {
          "internalType": "string",
          "name": "ipfsHash",
          "type": "string"
        }
      ],
      "name": "storeFile",
      "outputs": [
        {
          "internalType": "uint256",
          "name": "",
          "type": "uint256"
        }
      ],
      "stateMutability": "nonpayable",
      "type": "function"
    },
    {
      "inputs": [
        {
          "internalType": "uint256",
          "name": "tokenId",
          "type": "uint256"
        }
      ],
      "name": "getFileInfo",
      "outputs": [
        {
          "components": [
            {
              "internalType": "string",
              "name": "name",
              "type": "string"
            },
            {
              "internalType": "string",
              "name": "ipfsHash",
              "type": "string"
            },
            {
              "internalType": "address",
              "name": "owner",
              "type": "address"
            }
          ],
          "internalType": "struct FileStorage.FileInfo",
          "name": "",
          "type": "tuple"
        }
      ],
      "stateMutability": "view",
      "type": "function"
    },
    {
      "inputs": [
        {
          "internalType": "uint256",
          "name": "tokenId",
          "type": "uint256"
        },
        {
          "internalType": "string",
          "name": "newName",
          "type": "string"
        },
        {
          "internalType": "string",
          "name": "newIpfsHash",
          "type": "string"
        }
      ],
      "name": "updateFileInfo",
      "outputs": [],
      "stateMutability": "nonpayable",
      "type": "function"
    },
    {
      "inputs": [
        {
          "internalType": "uint256",
          "name": "tokenId",
          "type": "uint256"
        }
      ],
      "name": "deleteFile",
      "outputs": [],
      "stateMutability": "nonpayable",
      "type": "function"
    },
    {
      "inputs": [
        {
          "internalType": "uint256",
          "name": "fileId",
          "type": "uint256"
        }
      ],
      "name": "getFileHash",
      "outputs": [
        {
          "internalType": "string",
          "name": "",
          "type": "string"
        }
      ],
      "stateMutability": "view",
      "type": "function"
    }
  ],
  "bytecode": "0x60806040523480156200001157600080fd5b506040518060400160405280600b81526020017f46696c6553746f726167650000000000000000000000000000000000000000008152506040518060400160405280600381526020017f465354000000000000000000000000000000000000000000000000000000000081525081600090816200008f91906200041a565b508060019081620000a191906200041a565b505050620000c4620000b8620000d260201b60201c565b620000da60201b60201c565b600060098190555062000501565b600033905090565b6000600660009054906101000a900473ffffffffffffffffffffffffffffffffffffffff16905081600660006101000a81548173ffffffffffffffffffffffffffffffffffffffff021916908373ffffffffffffffffffffffffffffffffffffffff1602179055508173ffffffffffffffffffffffffffffffffffffffff168173ffffffffffffffffffffffffffffffffffffffff167f8be0079c531659141344cd1fd0a4f28419497f9722a3daafe3b4186f6b6457e060405160405180910390a35050565b600081519050919050565b7f4e487b7100000000000000000000000000000000000000000000000000000000600052604160045260246000fd5b7f4e487b7100000000000000000000000000000000000000000000000000000000600052602260045260246000fd5b600060028204905060018216806200022257607f821691505b602082108103620002385762000237620001da565b5b50919050565b60008190508160005260206000209050919050565b60006020601f8301049050919050565b600082821b905092915050565b600060088302620002a27fffffffffffffffffffffffffffffffffffffffffffffffffffffffffffffffff8262000263565b620002ae868362000263565b95508019841693508086168417925050509392505050565b6000819050919050565b6000819050919050565b6000620002fb620002f5620002ef84620002c6565b620002d0565b620002c6565b9050919050565b6000819050919050565b6200031783620002da565b6200032f620003268262000302565b84845462000270565b825550505050565b600090565b6200034662000337565b620003538184846200030c565b505050565b5b818110156200037b576200036f6000826200033c565b60018101905062000359565b5050565b601f821115620003ca5762000394816200023e565b6200039f8462000253565b81016020851015620003af578190505b620003c7620003be8562000253565b83018262000358565b50505b505050565b600082821c905092915050565b6000620003ef60001984600802620003cf565b1980831691505092915050565b60006200040a8383620003dc565b9150826002028217905092915050565b6200042582620001a0565b67ffffffffffffffff811115620004415762000440620001ab565b5b6200044d825462000209565b6200045a8282856200037f565b600060209050601f8311600181146200049257600084156200047d578287015190505b620004898582620003fc565b865550620004f9565b601f198416620004a2866200023e565b60005b82811015620004cc57848901518255600182019150602085019450602081019050620004a5565b86831015620004ec5784890151620004e8601f891682620003dc565b8355505b6001600288020188555050505b505050505050565b613a6380620005116000396000f3fe608060405234801561001057600080fd5b506004361061018e5760003560e01c80638da5cb5b116100de578063c5b4200611610097578063e985e9c511610071578063e985e9c5146104b7578063eb131135146104e7578063f2fde38b14610517578063fa70dc8d146105335761018e565b8063c5b420061461043b578063c87b56dd14610457578063d7d56035146104875761018e565b80638da5cb5b1461036757806395d89b4114610385578063a22cb465146103a3578063b88d4fde146103bf578063ba89949e146103db578063c110f4c91461040b5761018e565b806323b872dd1161014b5780636352211e116101255780636352211e146102e1578063704802751461031157806370a082311461032d578063715018a61461035d5761018e565b806323b872dd1461027957806324d7806c1461029557806342842e0e146102c55761018e565b806301ffc9a71461019357806306fdde03146101c3578063081812fc146101e1578063095ea7b3146102115780631785f53c1461022d57806320de107014610249575b600080fd5b6101ad60048036038101906101a891906125af565b61054f565b6040516101ba91906125f7565b60405180910390f35b6101cb610631565b6040516101d891906126a2565b60405180910390f35b6101fb60048036038101906101f691906126fa565b6106c3565b6040516102089190612768565b60405180910390f35b61022b600480360381019061022691906127af565b610709565b005b610247600480360381019061024291906127ef565b610820565b005b610263600480360381019061025e9190612951565b610834565b60405161027091906129d8565b60405180910390f35b610293600480360381019061028e91906129f3565b610922565b005b6102af60048036038101906102aa91906127ef565b610982565b6040516102bc91906125f7565b60405180910390f35b6102df60048036038101906102da91906129f3565b6109d8565b005b6102fb60048036038101906102f691906126fa565b6109f8565b6040516103089190612768565b60405180910390f35b61032b600480360381019061032691906127ef565b610a7e565b005b610347600480360381019061034291906127ef565b610a92565b60405161035491906129d8565b60405180910390f35b610365610b49565b005b61036f610b5d565b60405161037c9190612768565b60405180910390f35b61038d610b87565b60405161039a91906126a2565b60405180910390f35b6103bd60048036038101906103b89190612a72565b610c19565b005b6103d960048036038101906103d49190612b53565b610c2f565b005b6103f560048036038101906103f09190612bd6565b610c91565b60405161040291906129d8565b60405180910390f35b610425600480360381019061042091906126fa565b610d5c565b60405161043291906126a2565b60405180910390f35b610455600480360381019061045091906126fa565b610dfc565b005b610471600480360381019061046c91906126fa565b610eeb565b60405161047e91906126a2565b60405180910390f35b6104a1600480360381019061049c91906126fa565b610f53565b6040516104ae9190612ccf565b60405180910390f35b6104d160048036038101906104cc9190612cf1565b6110fa565b6040516104de91906125f7565b60405180910390f35b61050160048036038101906104fc91906126fa565b61118e565b60405161050e91906126a2565b60405180910390f35b610531600480360381019061052c91906127ef565b611236565b005b61054d60048036038101906105489190612d31565b6112b9565b005b60007f80ac58cd000000000000000000000000000000000000000000000000000000007bffffffffffffffffffffffffffffffffffffffffffffffffffffffff1916827bffffffffffffffffffffffffffffffffffffffffffffffffffffffff1916148061061a57507f5b5e139f000000000000000000000000000000000000000000000000000000007bffffffffffffffffffffffffffffffffffffffffffffffffffffffff1916827bffffffffffffffffffffffffffffffffffffffffffffffffffffffff1916145b8061062a57506106298261138c565b5b9050919050565b60606000805461064090612deb565b80601f016020809104026020016040519081016040528092919081815260200182805461066c90612deb565b80156106b95780601f1061068e576101008083540402835291602001916106b9565b820191906000526020600020905b81548152906001019060200180831161069c57829003601f168201915b5050505050905090565b60006106ce826113f6565b6004600083815260200190815260200160002060009054906101000a900473ffffffffffffffffffffffffffffffffffffffff169050919050565b6000610714826109f8565b90508073ffffffffffffffffffffffffffffffffffffffff168373ffffffffffffffffffffffffffffffffffffffff1603610784576040517f08c379a000000000000000000000000000000000000000000000000000000000815260040161077b90612e8e565b60405180910390fd5b8073ffffffffffffffffffffffffffffffffffffffff166107a3611441565b73ffffffffffffffffffffffffffffffffffffffff1614806107d257506107d1816107cc611441565b6110fa565b5b610811576040517f08c379a000000000000000000000000000000000000000000000000000000000815260040161080890612f20565b60405180910390fd5b61081b8383611449565b505050565b610828611502565b61083181611580565b50565b600080600a549050610846338261161e565b60405180606001604052808581526020018481526020013373ffffffffffffffffffffffffffffffffffffffff16815250600b6000838152602001908152602001600020600082015181600001908161089f91906130ec565b5060208201518160010190816108b591906130ec565b5060408201518160020160006101000a81548173ffffffffffffffffffffffffffffffffffffffff021916908373ffffffffffffffffffffffffffffffffffffffff160217905550905050600a6000815480929190610913906131ed565b91905055508091505092915050565b61093361092d611441565b8261183b565b610972576040517f08c379a0000000000000000000000000000000000000000000000000000000008152600401610969906132a7565b60405180910390fd5b61097d8383836118d0565b505050565b6000600760008373ffffffffffffffffffffffffffffffffffffffff1673ffffffffffffffffffffffffffffffffffffffff16815260200190815260200160002060009054906101000a900460ff169050919050565b6109f383838360405180602001604052806000815250610c2f565b505050565b600080610a0483611bc9565b9050600073ffffffffffffffffffffffffffffffffffffffff168173ffffffffffffffffffffffffffffffffffffffff1603610a75576040517f08c379a0000000000000000000000000000000000000000000000000000000008152600401610a6c90613313565b60405180910390fd5b80915050919050565b610a86611502565b610a8f81611c06565b50565b60008073ffffffffffffffffffffffffffffffffffffffff168273ffffffffffffffffffffffffffffffffffffffff1603610b02576040517f08c379a0000000000000000000000000000000000000000000000000000000008152600401610af9906133a5565b60405180910390fd5b600360008373ffffffffffffffffffffffffffffffffffffffff1673ffffffffffffffffffffffffffffffffffffffff168152602001908152602001600020549050919050565b610b51611502565b610b5b6000611ca4565b565b6000600660009054906101000a900473ffffffffffffffffffffffffffffffffffffffff16905090565b606060018054610b9690612deb565b80601f0160208091040260200160405190810160405280929190818152602001828054610bc290612deb565b8015610c0f5780601f10610be457610100808354040283529160200191610c0f565b820191906000526020600020905b815481529060010190602001808311610bf257829003601f168201915b5050505050905090565b610c2b610c24611441565b8383611d6a565b5050565b610c40610c3a611441565b8361183b565b610c7f576040517f08c379a0000000000000000000000000000000000000000000000000000000008152600401610c76906132a7565b60405180910390fd5b610c8b84848484611ed6565b50505050565b6000610c9c33610982565b610cdb576040517f08c379a0000000000000000000000000000000000000000000000000000000008152600401610cd290613437565b60405180910390fd5b6000600954905082600860008381526020019081526020016000209081610d0291906130ec565b5060096000815480929190610d16906131ed565b9190505550807fd14e25ed71a404367461d2269b2413ef73b82aae51eaf6f172af69e3bcc32ee384604051610d4b91906126a2565b60405180910390a280915050919050565b60086020528060005260406000206000915090508054610d7b90612deb565b80601f0160208091040260200160405190810160405280929190818152602001828054610da790612deb565b8015610df45780601f10610dc957610100808354040283529160200191610df4565b820191906000526020600020905b815481529060010190602001808311610dd757829003601f168201915b505050505081565b3373ffffffffffffffffffffffffffffffffffffffff16610e1c826109f8565b73ffffffffffffffffffffffffffffffffffffffff161480610e435750610e4233610982565b5b610e82576040517f08c379a0000000000000000000000000000000000000000000000000000000008152600401610e79906134a3565b60405180910390fd5b610e8b81611f32565b600b600082815260200190815260200160002060008082016000610eaf91906124af565b600182016000610ebf91906124af565b6002820160006101000a81549073ffffffffffffffffffffffffffffffffffffffff0219169055505050565b6060610ef6826113f6565b6000610f00612080565b90506000815111610f205760405180602001604052806000815250610f4b565b80610f2a84612097565b604051602001610f3b9291906134ff565b6040516020818303038152906040525b915050919050565b610f5b6124ef565b600b6000838152602001908152602001600020604051806060016040529081600082018054610f8990612deb565b80601f0160208091040260200160405190810160405280929190818152602001828054610fb590612deb565b80156110025780601f10610fd757610100808354040283529160200191611002565b820191906000526020600020905b815481529060010190602001808311610fe557829003601f168201915b5050505050815260200160018201805461101b90612deb565b80601f016020809104026020016040519081016040528092919081815260200182805461104790612deb565b80156110945780601f1061106957610100808354040283529160200191611094565b820191906000526020600020905b81548152906001019060200180831161107757829003601f168201915b505050505081526020016002820160009054906101000a900473ffffffffffffffffffffffffffffffffffffffff1673ffffffffffffffffffffffffffffffffffffffff1673ffffffffffffffffffffffffffffffffffffffff16815250509050919050565b6000600560008473ffffffffffffffffffffffffffffffffffffffff1673ffffffffffffffffffffffffffffffffffffffff16815260200190815260200160002060008373ffffffffffffffffffffffffffffffffffffffff1673ffffffffffffffffffffffffffffffffffffffff16815260200190815260200160002060009054906101000a900460ff16905092915050565b6060600b600083815260200190815260200160002060010180546111b190612deb565b80601f01602080910402602001604051908101604052809291908181526020018280546111dd90612deb565b801561122a5780601f106111ff5761010080835404028352916020019161122a565b820191906000526020600020905b81548152906001019060200180831161120d57829003601f168201915b50505050509050919050565b61123e611502565b600073ffffffffffffffffffffffffffffffffffffffff168173ffffffffffffffffffffffffffffffffffffffff16036112ad576040517f08c379a00000000000000000000000000000000000000000000000000000000081526004016112a490613595565b60405180910390fd5b6112b681611ca4565b50565b3373ffffffffffffffffffffffffffffffffffffffff166112d9846109f8565b73ffffffffffffffffffffffffffffffffffffffff16148061130057506112ff33610982565b5b61133f576040517f08c379a0000000000000000000000000000000000000000000000000000000008152600401611336906134a3565b60405180910390fd5b81600b6000858152602001908152602001600020600001908161136291906130ec565b5080600b6000858152602001908152602001600020600101908161138691906130ec565b50505050565b60007f01ffc9a7000000000000000000000000000000000000000000000000000000007bffffffffffffffffffffffffffffffffffffffffffffffffffffffff1916827bffffffffffffffffffffffffffffffffffffffffffffffffffffffff1916149050919050565b6113ff81612165565b61143e576040517f08c379a000000000000000000000000000000000000000000000000000000000815260040161143590613313565b60405180910390fd5b50565b600033905090565b816004600083815260200190815260200160002060006101000a81548173ffffffffffffffffffffffffffffffffffffffff021916908373ffffffffffffffffffffffffffffffffffffffff160217905550808273ffffffffffffffffffffffffffffffffffffffff166114bc836109f8565b73ffffffffffffffffffffffffffffffffffffffff167f8c5be1e5ebec7d5bd14f71427d1e84f3dd0314c0f7b2291e5b200ac8c7c3b92560405160405180910390a45050565b61150a611441565b73ffffffffffffffffffffffffffffffffffffffff16611528610b5d565b73ffffffffffffffffffffffffffffffffffffffff161461157e576040517f08c379a000000000000000000000000000000000000000000000000000000000815260040161157590613601565b60405180910390fd5b565b6000600760008373ffffffffffffffffffffffffffffffffffffffff1673ffffffffffffffffffffffffffffffffffffffff16815260200190815260200160002060006101000a81548160ff0219169083151502179055508073ffffffffffffffffffffffffffffffffffffffff167fa3b62bc36326052d97ea62d63c3d60308ed4c3ea8ac079dd8499f1e9c4f80c0f60405160405180910390a250565b600073ffffffffffffffffffffffffffffffffffffffff168273ffffffffffffffffffffffffffffffffffffffff160361168d576040517f08c379a00000000000000000000000000000000000000000000000000000000081526004016116849061366d565b60405180910390fd5b61169681612165565b156116d6576040517f08c379a00000000000000000000000000000000000000000000000000000000081526004016116cd906136d9565b60405180910390fd5b6116e46000838360016121a6565b6116ed81612165565b1561172d576040517f08c379a0000000000000000000000000000000000000000000000000000000008152600401611724906136d9565b60405180910390fd5b6001600360008473ffffffffffffffffffffffffffffffffffffffff1673ffffffffffffffffffffffffffffffffffffffff16815260200190815260200160002060008282540192505081905550816002600083815260200190815260200160002060006101000a81548173ffffffffffffffffffffffffffffffffffffffff021916908373ffffffffffffffffffffffffffffffffffffffff160217905550808273ffffffffffffffffffffffffffffffffffffffff16600073ffffffffffffffffffffffffffffffffffffffff167fddf252ad1be2c89b69c2b068fc378daa952ba7f163c4a11628f55a4df523b3ef60405160405180910390a46118376000838360016121ac565b5050565b600080611847836109f8565b90508073ffffffffffffffffffffffffffffffffffffffff168473ffffffffffffffffffffffffffffffffffffffff161480611889575061188881856110fa565b5b806118c757508373ffffffffffffffffffffffffffffffffffffffff166118af846106c3565b73ffffffffffffffffffffffffffffffffffffffff16145b91505092915050565b8273ffffffffffffffffffffffffffffffffffffffff166118f0826109f8565b73ffffffffffffffffffffffffffffffffffffffff1614611946576040517f08c379a000000000000000000000000000000000000000000000000000000000815260040161193d9061376b565b60405180910390fd5b600073ffffffffffffffffffffffffffffffffffffffff168273ffffffffffffffffffffffffffffffffffffffff16036119b5576040517f08c379a00000000000000000000000000000000000000000000000000000000081526004016119ac906137fd565b60405180910390fd5b6119c283838360016121a6565b8273ffffffffffffffffffffffffffffffffffffffff166119e2826109f8565b73ffffffffffffffffffffffffffffffffffffffff1614611a38576040517f08c379a0000000000000000000000000000000000000000000000000000000008152600401611a2f9061376b565b60405180910390fd5b6004600082815260200190815260200160002060006101000a81549073ffffffffffffffffffffffffffffffffffffffff02191690556001600360008573ffffffffffffffffffffffffffffffffffffffff1673ffffffffffffffffffffffffffffffffffffffff168152602001908152602001600020600082825403925050819055506001600360008473ffffffffffffffffffffffffffffffffffffffff1673ffffffffffffffffffffffffffffffffffffffff16815260200190815260200160002060008282540192505081905550816002600083815260200190815260200160002060006101000a81548173ffffffffffffffffffffffffffffffffffffffff021916908373ffffffffffffffffffffffffffffffffffffffff160217905550808273ffffffffffffffffffffffffffffffffffffffff168473ffffffffffffffffffffffffffffffffffffffff167fddf252ad1be2c89b69c2b068fc378daa952ba7f163c4a11628f55a4df523b3ef60405160405180910390a4611bc483838360016121ac565b505050565b60006002600083815260200190815260200160002060009054906101000a900473ffffffffffffffffffffffffffffffffffffffff169050919050565b6001600760008373ffffffffffffffffffffffffffffffffffffffff1673ffffffffffffffffffffffffffffffffffffffff16815260200190815260200160002060006101000a81548160ff0219169083151502179055508073ffffffffffffffffffffffffffffffffffffffff167f44d6d25963f097ad14f29f06854a01f575648a1ef82f30e562ccd3889717e33960405160405180910390a250565b6000600660009054906101000a900473ffffffffffffffffffffffffffffffffffffffff16905081600660006101000a81548173ffffffffffffffffffffffffffffffffffffffff021916908373ffffffffffffffffffffffffffffffffffffffff1602179055508173ffffffffffffffffffffffffffffffffffffffff168173ffffffffffffffffffffffffffffffffffffffff167f8be0079c531659141344cd1fd0a4f28419497f9722a3daafe3b4186f6b6457e060405160405180910390a35050565b8173ffffffffffffffffffffffffffffffffffffffff168373ffffffffffffffffffffffffffffffffffffffff1603611dd8576040517f08c379a0000000000000000000000000000000000000000000000000000000008152600401611dcf90613869565b60405180910390fd5b80600560008573ffffffffffffffffffffffffffffffffffffffff1673ffffffffffffffffffffffffffffffffffffffff16815260200190815260200160002060008473ffffffffffffffffffffffffffffffffffffffff1673ffffffffffffffffffffffffffffffffffffffff16815260200190815260200160002060006101000a81548160ff0219169083151502179055508173ffffffffffffffffffffffffffffffffffffffff168373ffffffffffffffffffffffffffffffffffffffff167f17307eab39ab6107e8899845ad3d59bd9653f200f220920489ca2b5937696c3183604051611ec991906125f7565b60405180910390a3505050565b611ee18484846118d0565b611eed848484846121b2565b611f2c576040517f08c379a0000000000000000000000000000000000000000000000000000000008152600401611f23906138fb565b60405180910390fd5b50505050565b6000611f3d826109f8565b9050611f4d8160008460016121a6565b611f56826109f8565b90506004600083815260200190815260200160002060006101000a81549073ffffffffffffffffffffffffffffffffffffffff02191690556001600360008373ffffffffffffffffffffffffffffffffffffffff1673ffffffffffffffffffffffffffffffffffffffff168152602001908152602001600020600082825403925050819055506002600083815260200190815260200160002060006101000a81549073ffffffffffffffffffffffffffffffffffffffff021916905581600073ffffffffffffffffffffffffffffffffffffffff168273ffffffffffffffffffffffffffffffffffffffff167fddf252ad1be2c89b69c2b068fc378daa952ba7f163c4a11628f55a4df523b3ef60405160405180910390a461207c8160008460016121ac565b5050565b606060405180602001604052806000815250905090565b6060600060016120a684612339565b01905060008167ffffffffffffffff8111156120c5576120c4612826565b5b6040519080825280601f01601f1916602001820160405280156120f75781602001600182028036833780820191505090505b509050600082602001820190505b60011561215a578080600190039150507f3031323334353637383961626364656600000000000000000000000000000000600a86061a8153600a858161214e5761214d61391b565b5b04945060008503612105575b819350505050919050565b60008073ffffffffffffffffffffffffffffffffffffffff1661218783611bc9565b73ffffffffffffffffffffffffffffffffffffffff1614159050919050565b50505050565b50505050565b60006121d38473ffffffffffffffffffffffffffffffffffffffff1661248c565b1561232c578373ffffffffffffffffffffffffffffffffffffffff1663150b7a026121fc611441565b8786866040518563ffffffff1660e01b815260040161221e949392919061399f565b6020604051808303816000875af192505050801561225a57506040513d601f19601f820116820180604052508101906122579190613a00565b60015b6122dc573d806000811461228a576040519150601f19603f3d011682016040523d82523d6000602084013e61228f565b606091505b5060008151036122d4576040517f08c379a00000000000000000000000000000000000000000000000000000000081526004016122cb906138fb565b60405180910390fd5b805181602001fd5b63150b7a0260e01b7bffffffffffffffffffffffffffffffffffffffffffffffffffffffff1916817bffffffffffffffffffffffffffffffffffffffffffffffffffffffff191614915050612331565b600190505b949350505050565b600080600090507a184f03e93ff9f4daa797ed6e38ed64bf6a1f0100000000000000008310612397577a184f03e93ff9f4daa797ed6e38ed64bf6a1f010000000000000000838161238d5761238c61391b565b5b0492506040810190505b6d04ee2d6d415b85acef810000000083106123d4576d04ee2d6d415b85acef810000000083816123ca576123c961391b565b5b0492506020810190505b662386f26fc10000831061240357662386f26fc1000083816123f9576123f861391b565b5b0492506010810190505b6305f5e100831061242c576305f5e10083816124225761242161391b565b5b0492506008810190505b61271083106124515761271083816124475761244661391b565b5b0492506004810190505b60648310612474576064838161246a5761246961391b565b5b0492506002810190505b600a8310612483576001810190505b80915050919050565b6000808273ffffffffffffffffffffffffffffffffffffffff163b119050919050565b5080546124bb90612deb565b6000825580601f106124cd57506124ec565b601f0160209004906000526020600020908101906124eb9190612526565b5b50565b60405180606001604052806060815260200160608152602001600073ffffffffffffffffffffffffffffffffffffffff1681525090565b5b8082111561253f576000816000905550600101612527565b5090565b6000604051905090565b600080fd5b600080fd5b60007fffffffff0000000000000000000000000000000000000000000000000000000082169050919050565b61258c81612557565b811461259757600080fd5b50565b6000813590506125a981612583565b92915050565b6000602082840312156125c5576125c461254d565b5b60006125d38482850161259a565b91505092915050565b60008115159050919050565b6125f1816125dc565b82525050565b600060208201905061260c60008301846125e8565b92915050565b600081519050919050565b600082825260208201905092915050565b60005b8381101561264c578082015181840152602081019050612631565b60008484015250505050565b6000601f19601f8301169050919050565b600061267482612612565b61267e818561261d565b935061268e81856020860161262e565b61269781612658565b840191505092915050565b600060208201905081810360008301526126bc8184612669565b905092915050565b6000819050919050565b6126d7816126c4565b81146126e257600080fd5b50565b6000813590506126f4816126ce565b92915050565b6000602082840312156127105761270f61254d565b5b600061271e848285016126e5565b91505092915050565b600073ffffffffffffffffffffffffffffffffffffffff82169050919050565b600061275282612727565b9050919050565b61276281612747565b82525050565b600060208201905061277d6000830184612759565b92915050565b61278c81612747565b811461279757600080fd5b50565b6000813590506127a981612783565b92915050565b600080604083850312156127c6576127c561254d565b5b60006127d48582860161279a565b92505060206127e5858286016126e5565b9150509250929050565b6000602082840312156128055761280461254d565b5b60006128138482850161279a565b91505092915050565b600080fd5b600080fd5b7f4e487b7100000000000000000000000000000000000000000000000000000000600052604160045260246000fd5b61285e82612658565b810181811067ffffffffffffffff8211171561287d5761287c612826565b5b80604052505050565b6000612890612543565b905061289c8282612855565b919050565b600067ffffffffffffffff8211156128bc576128bb612826565b5b6128c582612658565b9050602081019050919050565b82818337600083830152505050565b60006128f46128ef846128a1565b612886565b9050828152602081018484840111156129105761290f612821565b5b61291b8482856128d2565b509392505050565b600082601f8301126129385761293761281c565b5b81356129488482602086016128e1565b91505092915050565b600080604083850312156129685761296761254d565b5b600083013567ffffffffffffffff81111561298657612985612552565b5b61299285828601612923565b925050602083013567ffffffffffffffff8111156129b3576129b2612552565b5b6129bf85828601612923565b9150509250929050565b6129d2816126c4565b82525050565b60006020820190506129ed60008301846129c9565b92915050565b600080600060608486031215612a0c57612a0b61254d565b5b6000612a1a8682870161279a565b9350506020612a2b8682870161279a565b9250506040612a3c868287016126e5565b9150509250925092565b612a4f816125dc565b8114612a5a57600080fd5b50565b600081359050612a6c81612a46565b92915050565b60008060408385031215612a8957612a8861254d565b5b6000612a978582860161279a565b9250506020612aa885828601612a5d565b9150509250929050565b600067ffffffffffffffff821115612acd57612acc612826565b5b612ad682612658565b9050602081019050919050565b6000612af6612af184612ab2565b612886565b905082815260208101848484011115612b1257612b11612821565b5b612b1d8482856128d2565b509392505050565b600082601f830112612b3a57612b3961281c565b5b8135612b4a848260208601612ae3565b91505092915050565b60008060008060808587031215612b6d57612b6c61254d565b5b6000612b7b8782880161279a565b9450506020612b8c8782880161279a565b9350506040612b9d878288016126e5565b925050606085013567ffffffffffffffff811115612bbe57612bbd612552565b5b612bca87828801612b25565b91505092959194509250565b600060208284031215612bec57612beb61254d565b5b600082013567ffffffffffffffff811115612c0a57612c09612552565b5b612c1684828501612923565b91505092915050565b600082825260208201905092915050565b6000612c3b82612612565b612c458185612c1f565b9350612c5581856020860161262e565b612c5e81612658565b840191505092915050565b612c7281612747565b82525050565b60006060830160008301518482036000860152612c958282612c30565b91505060208301518482036020860152612caf8282612c30565b9150506040830151612cc46040860182612c69565b508091505092915050565b60006020820190508181036000830152612ce98184612c78565b905092915050565b60008060408385031215612d0857612d0761254d565b5b6000612d168582860161279a565b9250506020612d278582860161279a565b9150509250929050565b600080600060608486031215612d4a57612d4961254d565b5b6000612d58868287016126e5565b935050602084013567ffffffffffffffff811115612d7957612d78612552565b5b612d8586828701612923565b925050604084013567ffffffffffffffff811115612da657612da5612552565b5b612db286828701612923565b9150509250925092565b7f4e487b7100000000000000000000000000000000000000000000000000000000600052602260045260246000fd5b60006002820490506001821680612e0357607f821691505b602082108103612e1657612e15612dbc565b5b50919050565b7f4552433732313a20617070726f76616c20746f2063757272656e74206f776e6560008201527f7200000000000000000000000000000000000000000000000000000000000000602082015250565b6000612e7860218361261d565b9150612e8382612e1c565b604082019050919050565b60006020820190508181036000830152612ea781612e6b565b9050919050565b7f4552433732313a20617070726f76652063616c6c6572206973206e6f7420746f60008201527f6b656e206f776e6572206f7220617070726f76656420666f7220616c6c000000602082015250565b6000612f0a603d8361261d565b9150612f1582612eae565b604082019050919050565b60006020820190508181036000830152612f3981612efd565b9050919050565b60008190508160005260206000209050919050565b60006020601f8301049050919050565b600082821b905092915050565b600060088302612fa27fffffffffffffffffffffffffffffffffffffffffffffffffffffffffffffffff82612f65565b612fac8683612f65565b95508019841693508086168417925050509392505050565b6000819050919050565b6000612fe9612fe4612fdf846126c4565b612fc4565b6126c4565b9050919050565b6000819050919050565b61300383612fce565b61301761300f82612ff0565b848454612f72565b825550505050565b600090565b61302c61301f565b613037818484612ffa565b505050565b5b8181101561305b57613050600082613024565b60018101905061303d565b5050565b601f8211156130a05761307181612f40565b61307a84612f55565b81016020851015613089578190505b61309d61309585612f55565b83018261303c565b50505b505050565b600082821c905092915050565b60006130c3600019846008026130a5565b1980831691505092915050565b60006130dc83836130b2565b9150826002028217905092915050565b6130f582612612565b67ffffffffffffffff81111561310e5761310d612826565b5b6131188254612deb565b61312382828561305f565b600060209050601f8311600181146131565760008415613144578287015190505b61314e85826130d0565b8655506131b6565b601f19841661316486612f40565b60005b8281101561318c57848901518255600182019150602085019450602081019050613167565b868310156131a957848901516131a5601f8916826130b2565b8355505b6001600288020188555050505b505050505050565b7f4e487b7100000000000000000000000000000000000000000000000000000000600052601160045260246000fd5b60006131f8826126c4565b91507fffffffffffffffffffffffffffffffffffffffffffffffffffffffffffffffff820361322a576132296131be565b5b600182019050919050565b7f4552433732313a2063616c6c6572206973206e6f7420746f6b656e206f776e6560008201527f72206f7220617070726f76656400000000000000000000000000000000000000602082015250565b6000613291602d8361261d565b915061329c82613235565b604082019050919050565b600060208201905081810360008301526132c081613284565b9050919050565b7f4552433732313a20696e76616c696420746f6b656e2049440000000000000000600082015250565b60006132fd60188361261d565b9150613308826132c7565b602082019050919050565b6000602082019050818103600083015261332c816132f0565b9050919050565b7f4552433732313a2061646472657373207a65726f206973206e6f74206120766160008201527f6c6964206f776e65720000000000000000000000000000000000000000000000602082015250565b600061338f60298361261d565b915061339a82613333565b604082019050919050565b600060208201905081810360008301526133be81613382565b9050919050565b7f416363657373436f6e74726f6c3a2063616c6c6572206973206e6f7420616e2060008201527f61646d696e000000000000000000000000000000000000000000000000000000602082015250565b600061342160258361261d565b915061342c826133c5565b604082019050919050565b6000602082019050818103600083015261345081613414565b9050919050565b7f4e6f7420617574686f72697a6564000000000000000000000000000000000000600082015250565b600061348d600e8361261d565b915061349882613457565b602082019050919050565b600060208201905081810360008301526134bc81613480565b9050919050565b600081905092915050565b60006134d982612612565b6134e381856134c3565b93506134f381856020860161262e565b80840191505092915050565b600061350b82856134ce565b915061351782846134ce565b91508190509392505050565b7f4f776e61626c653a206e6577206f776e657220697320746865207a65726f206160008201527f6464726573730000000000000000000000000000000000000000000000000000602082015250565b600061357f60268361261d565b915061358a82613523565b604082019050919050565b600060208201905081810360008301526135ae81613572565b9050919050565b7f4f776e61626c653a2063616c6c6572206973206e6f7420746865206f776e6572600082015250565b60006135eb60208361261d565b91506135f6826135b5565b602082019050919050565b6000602082019050818103600083015261361a816135de565b9050919050565b7f4552433732313a206d696e7420746f20746865207a65726f2061646472657373600082015250565b600061365760208361261d565b915061366282613621565b602082019050919050565b600060208201905081810360008301526136868161364a565b9050919050565b7f4552433732313a20746f6b656e20616c7265616479206d696e74656400000000600082015250565b60006136c3601c8361261d565b91506136ce8261368d565b602082019050919050565b600060208201905081810360008301526136f2816136b6565b9050919050565b7f4552433732313a207472616e736665722066726f6d20696e636f72726563742060008201527f6f776e6572000000000000000000000000000000000000000000000000000000602082015250565b600061375560258361261d565b9150613760826136f9565b604082019050919050565b6000602082019050818103600083015261378481613748565b9050919050565b7f4552433732313a207472616e7366657220746f20746865207a65726f2061646460008201527f7265737300000000000000000000000000000000000000000000000000000000602082015250565b60006137e760248361261d565b91506137f28261378b565b604082019050919050565b60006020820190508181036000830152613816816137da565b9050919050565b7f4552433732313a20617070726f766520746f2063616c6c657200000000000000600082015250565b600061385360198361261d565b915061385e8261381d565b602082019050919050565b6000602082019050818103600083015261388281613846565b9050919050565b7f4552433732313a207472616e7366657220746f206e6f6e20455243373231526560008201527f63656976657220696d706c656d656e7465720000000000000000000000000000602082015250565b60006138e560328361261d565b91506138f082613889565b604082019050919050565b60006020820190508181036000830152613914816138d8565b9050919050565b7f4e487b7100000000000000000000000000000000000000000000000000000000600052601260045260246000fd5b600081519050919050565b600082825260208201905092915050565b60006139718261394a565b61397b8185613955565b935061398b81856020860161262e565b61399481612658565b840191505092915050565b60006080820190506139b46000830187612759565b6139c16020830186612759565b6139ce60408301856129c9565b81810360608301526139e08184613966565b905095945050505050565b6000815190506139fa81612583565b92915050565b600060208284031215613a1657613a1561254d565b5b6000613a24848285016139eb565b9150509291505056fea26469706673582212201457c0125baa940b7f92dc769a97b0bf950470894e2052c7770a29dea316e00764736f6c63430008130033",
  "immutableReferences": {},
  "source": "// SPDX-License-Identifier: MIT\r\npragma solidity ^0.8.0;\r\n\r\nimport \"@openzeppelin/contracts/token/ERC721/ERC721.sol\";\r\nimport \"./AccessControl.sol\";\r\n\r\ncontract FileStorage is ERC721, AccessControl {\r\n    uint256 private _tokenIdCounter;\r\n\r\n    struct FileInfo {\r\n        string name;\r\n        string ipfsHash;\r\n        address owner;\r\n    }\r\n\r\n    mapping(uint256 => FileInfo) private _fileInfo;\r\n\r\n    constructor() ERC721(\"FileStorage\", \"FST\") {}\r\n\r\n    function storeFile(string memory name, string memory ipfsHash) public returns (uint256) {\r\n        uint256 tokenId = _tokenIdCounter;\r\n        _mint(msg.sender, tokenId);\r\n        _fileInfo[tokenId] = FileInfo(name, ipfsHash, msg.sender);\r\n        _tokenIdCounter++;\r\n        return tokenId;\r\n    }\r\n\r\n    function getFileInfo(uint256 tokenId) public view returns (FileInfo memory) {\r\n        return _fileInfo[tokenId];\r\n    }\r\n\r\n    function updateFileInfo(uint256 tokenId, string memory newName, string memory newIpfsHash) public {\r\n        require(ownerOf(tokenId) == msg.sender || isAdmin(msg.sender), \"Not authorized\");\r\n        _fileInfo[tokenId].name = newName;\r\n        _fileInfo[tokenId].ipfsHash = newIpfsHash;\r\n    }\r\n\r\n    function deleteFile(uint256 tokenId) public {\r\n        require(ownerOf(tokenId) == msg.sender || isAdmin(msg.sender), \"Not authorized\");\r\n        _burn(tokenId);\r\n        delete _fileInfo[tokenId];\r\n    }\r\n\r\n    function getFileHash(uint256 fileId) public view override returns (string memory) {\r\n        return _fileInfo[fileId].ipfsHash;\r\n    }\r\n}",
  "sourcePath": "C:\\Users\\emdd0\\metados\\contracts\\FileStorage.sol",
  "compiler": {
    "name": "solc",
    "version": "0.8.19+commit.7dd6d404.Emscripten.clang"
  },
  "schemaVersion": "3.4.13",
  "updatedAt": "2023-05-04T03:12:51.921Z",
  "devdoc": {
    "events": {
      "Approval(address,address,uint256)": {
        "details": "Emitted when `owner` enables `approved` to manage the `tokenId` token."
      },
      "ApprovalForAll(address,address,bool)": {
        "details": "Emitted when `owner` enables or disables (`approved`) `operator` to manage all of its assets."
      },
      "Transfer(address,address,uint256)": {
        "details": "Emitted when `tokenId` token is transferred from `from` to `to`."
      }
    },
    "kind": "dev",
    "methods": {
      "approve(address,uint256)": {
        "details": "See {IERC721-approve}."
      },
      "balanceOf(address)": {
        "details": "See {IERC721-balanceOf}."
      },
      "getApproved(uint256)": {
        "details": "See {IERC721-getApproved}."
      },
      "isApprovedForAll(address,address)": {
        "details": "See {IERC721-isApprovedForAll}."
      },
      "name()": {
        "details": "See {IERC721Metadata-name}."
      },
      "owner()": {
        "details": "Returns the address of the current owner."
      },
      "ownerOf(uint256)": {
        "details": "See {IERC721-ownerOf}."
      },
      "renounceOwnership()": {
        "details": "Leaves the contract without owner. It will not be possible to call `onlyOwner` functions anymore. Can only be called by the current owner. NOTE: Renouncing ownership will leave the contract without an owner, thereby removing any functionality that is only available to the owner."
      },
      "safeTransferFrom(address,address,uint256)": {
        "details": "See {IERC721-safeTransferFrom}."
      },
      "safeTransferFrom(address,address,uint256,bytes)": {
        "details": "See {IERC721-safeTransferFrom}."
      },
      "setApprovalForAll(address,bool)": {
        "details": "See {IERC721-setApprovalForAll}."
      },
      "supportsInterface(bytes4)": {
        "details": "See {IERC165-supportsInterface}."
      },
      "symbol()": {
        "details": "See {IERC721Metadata-symbol}."
      },
      "tokenURI(uint256)": {
        "details": "See {IERC721Metadata-tokenURI}."
      },
      "transferFrom(address,address,uint256)": {
        "details": "See {IERC721-transferFrom}."
      },
      "transferOwnership(address)": {
        "details": "Transfers ownership of the contract to a new account (`newOwner`). Can only be called by the current owner."
      }
    },
    "version": 1
  },
  "userdoc": {
    "kind": "user",
    "methods": {},
    "version": 1
  }
}