{
  "contractName": "Project",
  "abi": [
    {
      "anonymous": false,
      "inputs": [
        {
          "indexed": true,
          "internalType": "address",
          "name": "account",
          "type": "address"
        }
      ],
      "name": "AdminAdded",
      "type": "event"
    },
    {
      "anonymous": false,
      "inputs": [
        {
          "indexed": true,
          "internalType": "address",
          "name": "account",
          "type": "address"
        }
      ],
      "name": "AdminRemoved",
      "type": "event"
    },
    {
      "anonymous": false,
      "inputs": [
        {
          "indexed": true,
          "internalType": "uint256",
          "name": "fileId",
          "type": "uint256"
        },
        {
          "indexed": false,
          "internalType": "string",
          "name": "ipfsHash",
          "type": "string"
        }
      ],
      "name": "FileHashAdded",
      "type": "event"
    },
    {
      "anonymous": false,
      "inputs": [
        {
          "indexed": true,
          "internalType": "address",
          "name": "previousOwner",
          "type": "address"
        },
        {
          "indexed": true,
          "internalType": "address",
          "name": "newOwner",
          "type": "address"
        }
      ],
      "name": "OwnershipTransferred",
      "type": "event"
    },
    {
      "inputs": [
        {
          "internalType": "address",
          "name": "account",
          "type": "address"
        }
      ],
      "name": "addAdmin",
      "outputs": [],
      "stateMutability": "nonpayable",
      "type": "function"
    },
    {
      "inputs": [
        {
          "internalType": "string",
          "name": "ipfsHash",
          "type": "string"
        }
      ],
      "name": "addFileHash",
      "outputs": [
        {
          "internalType": "uint256",
          "name": "",
          "type": "uint256"
        }
      ],
      "stateMutability": "nonpayable",
      "type": "function"
    },
    {
      "inputs": [
        {
          "internalType": "uint256",
          "name": "",
          "type": "uint256"
        }
      ],
      "name": "fileHashes",
      "outputs": [
        {
          "internalType": "string",
          "name": "",
          "type": "string"
        }
      ],
      "stateMutability": "view",
      "type": "function"
    },
    {
      "inputs": [
        {
          "internalType": "uint256",
          "name": "fileId",
          "type": "uint256"
        }
      ],
      "name": "getFileHash",
      "outputs": [
        {
          "internalType": "string",
          "name": "",
          "type": "string"
        }
      ],
      "stateMutability": "view",
      "type": "function"
    },
    {
      "inputs": [
        {
          "internalType": "address",
          "name": "account",
          "type": "address"
        }
      ],
      "name": "isAdmin",
      "outputs": [
        {
          "internalType": "bool",
          "name": "",
          "type": "bool"
        }
      ],
      "stateMutability": "view",
      "type": "function"
    },
    {
      "inputs": [],
      "name": "owner",
      "outputs": [
        {
          "internalType": "address",
          "name": "",
          "type": "address"
        }
      ],
      "stateMutability": "view",
      "type": "function"
    },
    {
      "inputs": [
        {
          "internalType": "address",
          "name": "account",
          "type": "address"
        }
      ],
      "name": "removeAdmin",
      "outputs": [],
      "stateMutability": "nonpayable",
      "type": "function"
    },
    {
      "inputs": [],
      "name": "renounceOwnership",
      "outputs": [],
      "stateMutability": "nonpayable",
      "type": "function"
    },
    {
      "inputs": [
        {
          "internalType": "address",
          "name": "newOwner",
          "type": "address"
        }
      ],
      "name": "transferOwnership",
      "outputs": [],
      "stateMutability": "nonpayable",
      "type": "function"
    },
    {
      "inputs": [
        {
          "internalType": "string",
          "name": "name",
          "type": "string"
        },
        {
          "internalType": "string",
          "name": "description",
          "type": "string"
        },
        {
          "internalType": "string",
          "name": "ipfsHash",
          "type": "string"
        }
      ],
      "name": "createProject",
      "outputs": [
        {
          "internalType": "uint256",
          "name": "",
          "type": "uint256"
        }
      ],
      "stateMutability": "nonpayable",
      "type": "function"
    },
    {
      "inputs": [
        {
          "internalType": "uint256",
          "name": "projectId",
          "type": "uint256"
        },
        {
          "internalType": "address",
          "name": "member",
          "type": "address"
        }
      ],
      "name": "addMember",
      "outputs": [],
      "stateMutability": "nonpayable",
      "type": "function"
    },
    {
      "inputs": [
        {
          "internalType": "uint256",
          "name": "projectId",
          "type": "uint256"
        },
        {
          "internalType": "address",
          "name": "member",
          "type": "address"
        }
      ],
      "name": "removeMember",
      "outputs": [],
      "stateMutability": "nonpayable",
      "type": "function"
    },
    {
      "inputs": [
        {
          "internalType": "uint256",
          "name": "projectId",
          "type": "uint256"
        },
        {
          "internalType": "string",
          "name": "newName",
          "type": "string"
        },
        {
          "internalType": "string",
          "name": "newDescription",
          "type": "string"
        },
        {
          "internalType": "string",
          "name": "newIpfsHash",
          "type": "string"
        }
      ],
      "name": "updateProjectInfo",
      "outputs": [],
      "stateMutability": "nonpayable",
      "type": "function"
    },
    {
      "inputs": [
        {
          "internalType": "uint256",
          "name": "projectId",
          "type": "uint256"
        }
      ],
      "name": "getProjectInfo",
      "outputs": [
        {
          "components": [
            {
              "internalType": "string",
              "name": "name",
              "type": "string"
            },
            {
              "internalType": "string",
              "name": "description",
              "type": "string"
            },
            {
              "internalType": "address[]",
              "name": "members",
              "type": "address[]"
            },
            {
              "internalType": "string",
              "name": "ipfsHash",
              "type": "string"
            }
          ],
          "internalType": "struct Project.ProjectInfo",
          "name": "",
          "type": "tuple"
        }
      ],
      "stateMutability": "view",
      "type": "function"
    },
    {
      "inputs": [
        {
          "internalType": "uint256",
          "name": "projectId",
          "type": "uint256"
        },
        {
          "internalType": "address",
          "name": "member",
          "type": "address"
        }
      ],
      "name": "isProjectMember",
      "outputs": [
        {
          "internalType": "bool",
          "name": "",
          "type": "bool"
        }
      ],
      "stateMutability": "view",
      "type": "function"
    }
  ],
  "bytecode": "0x608060405234801561001057600080fd5b5061002d61002261003a60201b60201c565b61004260201b60201c565b6000600381905550610106565b600033905090565b60008060009054906101000a900473ffffffffffffffffffffffffffffffffffffffff169050816000806101000a81548173ffffffffffffffffffffffffffffffffffffffff021916908373ffffffffffffffffffffffffffffffffffffffff1602179055508173ffffffffffffffffffffffffffffffffffffffff168173ffffffffffffffffffffffffffffffffffffffff167f8be0079c531659141344cd1fd0a4f28419497f9722a3daafe3b4186f6b6457e060405160405180910390a35050565b61222480620001166000396000f3fe608060405234801561001057600080fd5b50600436106100f55760003560e01c80638da5cb5b11610097578063cf7be6ec11610066578063cf7be6ec1461026e578063eb1311351461029e578063f2fde38b146102ce578063fabf5968146102ea576100f5565b80638da5cb5b146101d4578063ba89949e146101f2578063c110f4c914610222578063c67d0b8514610252576100f5565b80636be7658b116100d35780636be7658b146101765780637048027514610192578063715018a6146101ae57806374d0a676146101b8576100f5565b80631785f53c146100fa57806324d7806c14610116578063600c391114610146575b600080fd5b610114600480360381019061010f9190611511565b61031a565b005b610130600480360381019061012b9190611511565b61032e565b60405161013d9190611559565b60405180910390f35b610160600480360381019061015b91906115aa565b610384565b60405161016d9190611559565b60405180910390f35b610190600480360381019061018b91906115aa565b6103ec565b005b6101ac60048036038101906101a79190611511565b61077c565b005b6101b6610790565b005b6101d260048036038101906101cd91906115aa565b6107a4565b005b6101dc610925565b6040516101e991906115f9565b60405180910390f35b61020c6004803603810190610207919061175a565b61094e565b60405161021991906117b2565b60405180910390f35b61023c600480360381019061023791906117cd565b610a19565b6040516102499190611879565b60405180910390f35b61026c6004803603810190610267919061189b565b610ab9565b005b61028860048036038101906102839190611956565b610bc8565b60405161029591906117b2565b60405180910390f35b6102b860048036038101906102b391906117cd565b610db2565b6040516102c59190611879565b60405180910390f35b6102e860048036038101906102e39190611511565b610e57565b005b61030460048036038101906102ff91906117cd565b610eda565b6040516103119190611b7d565b60405180910390f35b61032261114b565b61032b816111c9565b50565b6000600160008373ffffffffffffffffffffffffffffffffffffffff1673ffffffffffffffffffffffffffffffffffffffff16815260200190815260200160002060009054906101000a900460ff169050919050565b60006006600084815260200190815260200160002060008373ffffffffffffffffffffffffffffffffffffffff1673ffffffffffffffffffffffffffffffffffffffff16815260200190815260200160002060009054906101000a900460ff16905092915050565b6006600083815260200190815260200160002060003373ffffffffffffffffffffffffffffffffffffffff1673ffffffffffffffffffffffffffffffffffffffff16815260200190815260200160002060009054906101000a900460ff16610489576040517f08c379a000000000000000000000000000000000000000000000000000000000815260040161048090611beb565b60405180910390fd5b3373ffffffffffffffffffffffffffffffffffffffff168173ffffffffffffffffffffffffffffffffffffffff16036104f7576040517f08c379a00000000000000000000000000000000000000000000000000000000081526004016104ee90611c57565b60405180910390fd5b60006006600084815260200190815260200160002060008373ffffffffffffffffffffffffffffffffffffffff1673ffffffffffffffffffffffffffffffffffffffff16815260200190815260200160002060006101000a81548160ff02191690831515021790555060008060005b600560008681526020019081526020016000206002018054905081101561062b578373ffffffffffffffffffffffffffffffffffffffff166005600087815260200190815260200160002060020182815481106105c6576105c5611c77565b5b9060005260206000200160009054906101000a900473ffffffffffffffffffffffffffffffffffffffff1673ffffffffffffffffffffffffffffffffffffffff1603610618578092506001915061062b565b808061062390611cd5565b915050610566565b50801561077657600560008581526020019081526020016000206002016001600560008781526020019081526020016000206002018054905061066e9190611d1d565b8154811061067f5761067e611c77565b5b9060005260206000200160009054906101000a900473ffffffffffffffffffffffffffffffffffffffff166005600086815260200190815260200160002060020183815481106106d2576106d1611c77565b5b9060005260206000200160006101000a81548173ffffffffffffffffffffffffffffffffffffffff021916908373ffffffffffffffffffffffffffffffffffffffff160217905550600560008581526020019081526020016000206002018054806107405761073f611d51565b5b6001900381819060005260206000200160006101000a81549073ffffffffffffffffffffffffffffffffffffffff021916905590555b50505050565b61078461114b565b61078d81611267565b50565b61079861114b565b6107a26000611304565b565b6006600083815260200190815260200160002060003373ffffffffffffffffffffffffffffffffffffffff1673ffffffffffffffffffffffffffffffffffffffff16815260200190815260200160002060009054906101000a900460ff16610841576040517f08c379a000000000000000000000000000000000000000000000000000000000815260040161083890611beb565b60405180910390fd5b60016006600084815260200190815260200160002060008373ffffffffffffffffffffffffffffffffffffffff1673ffffffffffffffffffffffffffffffffffffffff16815260200190815260200160002060006101000a81548160ff02191690831515021790555060056000838152602001908152602001600020600201819080600181540180825580915050600190039060005260206000200160009091909190916101000a81548173ffffffffffffffffffffffffffffffffffffffff021916908373ffffffffffffffffffffffffffffffffffffffff1602179055505050565b60008060009054906101000a900473ffffffffffffffffffffffffffffffffffffffff16905090565b60006109593361032e565b610998576040517f08c379a000000000000000000000000000000000000000000000000000000000815260040161098f90611df2565b60405180910390fd5b60006003549050826002600083815260200190815260200160002090816109bf919061201e565b50600360008154809291906109d390611cd5565b9190505550807fd14e25ed71a404367461d2269b2413ef73b82aae51eaf6f172af69e3bcc32ee384604051610a089190611879565b60405180910390a280915050919050565b60026020528060005260406000206000915090508054610a3890611e41565b80601f0160208091040260200160405190810160405280929190818152602001828054610a6490611e41565b8015610ab15780601f10610a8657610100808354040283529160200191610ab1565b820191906000526020600020905b815481529060010190602001808311610a9457829003601f168201915b505050505081565b6006600085815260200190815260200160002060003373ffffffffffffffffffffffffffffffffffffffff1673ffffffffffffffffffffffffffffffffffffffff16815260200190815260200160002060009054906101000a900460ff16610b56576040517f08c379a0000000000000000000000000000000000000000000000000000000008152600401610b4d90611beb565b60405180910390fd5b82600560008681526020019081526020016000206000019081610b79919061201e565b5081600560008681526020019081526020016000206001019081610b9d919061201e565b5080600560008681526020019081526020016000206003019081610bc1919061201e565b5050505050565b60008060045490506040518060800160405280868152602001858152602001600067ffffffffffffffff811115610c0257610c0161162f565b5b604051908082528060200260200182016040528015610c305781602001602082028036833780820191505090505b50815260200184815250600560008381526020019081526020016000206000820151816000019081610c62919061201e565b506020820151816001019081610c78919061201e565b506040820151816002019080519060200190610c959291906113d0565b506060820151816003019081610cab919061201e565b5090505060016006600083815260200190815260200160002060003373ffffffffffffffffffffffffffffffffffffffff1673ffffffffffffffffffffffffffffffffffffffff16815260200190815260200160002060006101000a81548160ff02191690831515021790555060056000828152602001908152602001600020600201339080600181540180825580915050600190039060005260206000200160009091909190916101000a81548173ffffffffffffffffffffffffffffffffffffffff021916908373ffffffffffffffffffffffffffffffffffffffff16021790555060046000815480929190610da290611cd5565b9190505550809150509392505050565b6060600260008381526020019081526020016000208054610dd290611e41565b80601f0160208091040260200160405190810160405280929190818152602001828054610dfe90611e41565b8015610e4b5780601f10610e2057610100808354040283529160200191610e4b565b820191906000526020600020905b815481529060010190602001808311610e2e57829003601f168201915b50505050509050919050565b610e5f61114b565b600073ffffffffffffffffffffffffffffffffffffffff168173ffffffffffffffffffffffffffffffffffffffff1603610ece576040517f08c379a0000000000000000000000000000000000000000000000000000000008152600401610ec590612162565b60405180910390fd5b610ed781611304565b50565b610ee261145a565b60056000838152602001908152602001600020604051806080016040529081600082018054610f1090611e41565b80601f0160208091040260200160405190810160405280929190818152602001828054610f3c90611e41565b8015610f895780601f10610f5e57610100808354040283529160200191610f89565b820191906000526020600020905b815481529060010190602001808311610f6c57829003601f168201915b50505050508152602001600182018054610fa290611e41565b80601f0160208091040260200160405190810160405280929190818152602001828054610fce90611e41565b801561101b5780601f10610ff05761010080835404028352916020019161101b565b820191906000526020600020905b815481529060010190602001808311610ffe57829003601f168201915b50505050508152602001600282018054806020026020016040519081016040528092919081815260200182805480156110a957602002820191906000526020600020905b8160009054906101000a900473ffffffffffffffffffffffffffffffffffffffff1673ffffffffffffffffffffffffffffffffffffffff168152602001906001019080831161105f575b505050505081526020016003820180546110c290611e41565b80601f01602080910402602001604051908101604052809291908181526020018280546110ee90611e41565b801561113b5780601f106111105761010080835404028352916020019161113b565b820191906000526020600020905b81548152906001019060200180831161111e57829003601f168201915b5050505050815250509050919050565b6111536113c8565b73ffffffffffffffffffffffffffffffffffffffff16611171610925565b73ffffffffffffffffffffffffffffffffffffffff16146111c7576040517f08c379a00000000000000000000000000000000000000000000000000000000081526004016111be906121ce565b60405180910390fd5b565b6000600160008373ffffffffffffffffffffffffffffffffffffffff1673ffffffffffffffffffffffffffffffffffffffff16815260200190815260200160002060006101000a81548160ff0219169083151502179055508073ffffffffffffffffffffffffffffffffffffffff167fa3b62bc36326052d97ea62d63c3d60308ed4c3ea8ac079dd8499f1e9c4f80c0f60405160405180910390a250565b60018060008373ffffffffffffffffffffffffffffffffffffffff1673ffffffffffffffffffffffffffffffffffffffff16815260200190815260200160002060006101000a81548160ff0219169083151502179055508073ffffffffffffffffffffffffffffffffffffffff167f44d6d25963f097ad14f29f06854a01f575648a1ef82f30e562ccd3889717e33960405160405180910390a250565b60008060009054906101000a900473ffffffffffffffffffffffffffffffffffffffff169050816000806101000a81548173ffffffffffffffffffffffffffffffffffffffff021916908373ffffffffffffffffffffffffffffffffffffffff1602179055508173ffffffffffffffffffffffffffffffffffffffff168173ffffffffffffffffffffffffffffffffffffffff167f8be0079c531659141344cd1fd0a4f28419497f9722a3daafe3b4186f6b6457e060405160405180910390a35050565b600033905090565b828054828255906000526020600020908101928215611449579160200282015b828111156114485782518260006101000a81548173ffffffffffffffffffffffffffffffffffffffff021916908373ffffffffffffffffffffffffffffffffffffffff160217905550916020019190600101906113f0565b5b5090506114569190611482565b5090565b6040518060800160405280606081526020016060815260200160608152602001606081525090565b5b8082111561149b576000816000905550600101611483565b5090565b6000604051905090565b600080fd5b600080fd5b600073ffffffffffffffffffffffffffffffffffffffff82169050919050565b60006114de826114b3565b9050919050565b6114ee816114d3565b81146114f957600080fd5b50565b60008135905061150b816114e5565b92915050565b600060208284031215611527576115266114a9565b5b6000611535848285016114fc565b91505092915050565b60008115159050919050565b6115538161153e565b82525050565b600060208201905061156e600083018461154a565b92915050565b6000819050919050565b61158781611574565b811461159257600080fd5b50565b6000813590506115a48161157e565b92915050565b600080604083850312156115c1576115c06114a9565b5b60006115cf85828601611595565b92505060206115e0858286016114fc565b9150509250929050565b6115f3816114d3565b82525050565b600060208201905061160e60008301846115ea565b92915050565b600080fd5b600080fd5b6000601f19601f8301169050919050565b7f4e487b7100000000000000000000000000000000000000000000000000000000600052604160045260246000fd5b6116678261161e565b810181811067ffffffffffffffff821117156116865761168561162f565b5b80604052505050565b600061169961149f565b90506116a5828261165e565b919050565b600067ffffffffffffffff8211156116c5576116c461162f565b5b6116ce8261161e565b9050602081019050919050565b82818337600083830152505050565b60006116fd6116f8846116aa565b61168f565b90508281526020810184848401111561171957611718611619565b5b6117248482856116db565b509392505050565b600082601f83011261174157611740611614565b5b81356117518482602086016116ea565b91505092915050565b6000602082840312156117705761176f6114a9565b5b600082013567ffffffffffffffff81111561178e5761178d6114ae565b5b61179a8482850161172c565b91505092915050565b6117ac81611574565b82525050565b60006020820190506117c760008301846117a3565b92915050565b6000602082840312156117e3576117e26114a9565b5b60006117f184828501611595565b91505092915050565b600081519050919050565b600082825260208201905092915050565b60005b83811015611834578082015181840152602081019050611819565b60008484015250505050565b600061184b826117fa565b6118558185611805565b9350611865818560208601611816565b61186e8161161e565b840191505092915050565b600060208201905081810360008301526118938184611840565b905092915050565b600080600080608085870312156118b5576118b46114a9565b5b60006118c387828801611595565b945050602085013567ffffffffffffffff8111156118e4576118e36114ae565b5b6118f08782880161172c565b935050604085013567ffffffffffffffff811115611911576119106114ae565b5b61191d8782880161172c565b925050606085013567ffffffffffffffff81111561193e5761193d6114ae565b5b61194a8782880161172c565b91505092959194509250565b60008060006060848603121561196f5761196e6114a9565b5b600084013567ffffffffffffffff81111561198d5761198c6114ae565b5b6119998682870161172c565b935050602084013567ffffffffffffffff8111156119ba576119b96114ae565b5b6119c68682870161172c565b925050604084013567ffffffffffffffff8111156119e7576119e66114ae565b5b6119f38682870161172c565b9150509250925092565b600082825260208201905092915050565b6000611a19826117fa565b611a2381856119fd565b9350611a33818560208601611816565b611a3c8161161e565b840191505092915050565b600081519050919050565b600082825260208201905092915050565b6000819050602082019050919050565b611a7c816114d3565b82525050565b6000611a8e8383611a73565b60208301905092915050565b6000602082019050919050565b6000611ab282611a47565b611abc8185611a52565b9350611ac783611a63565b8060005b83811015611af8578151611adf8882611a82565b9750611aea83611a9a565b925050600181019050611acb565b5085935050505092915050565b60006080830160008301518482036000860152611b228282611a0e565b91505060208301518482036020860152611b3c8282611a0e565b91505060408301518482036040860152611b568282611aa7565b91505060608301518482036060860152611b708282611a0e565b9150508091505092915050565b60006020820190508181036000830152611b978184611b05565b905092915050565b7f4e6f7420612070726f6a656374206d656d626572000000000000000000000000600082015250565b6000611bd5601483611805565b9150611be082611b9f565b602082019050919050565b60006020820190508181036000830152611c0481611bc8565b9050919050565b7f43616e6e6f742072656d6f766520796f757273656c6600000000000000000000600082015250565b6000611c41601683611805565b9150611c4c82611c0b565b602082019050919050565b60006020820190508181036000830152611c7081611c34565b9050919050565b7f4e487b7100000000000000000000000000000000000000000000000000000000600052603260045260246000fd5b7f4e487b7100000000000000000000000000000000000000000000000000000000600052601160045260246000fd5b6000611ce082611574565b91507fffffffffffffffffffffffffffffffffffffffffffffffffffffffffffffffff8203611d1257611d11611ca6565b5b600182019050919050565b6000611d2882611574565b9150611d3383611574565b9250828203905081811115611d4b57611d4a611ca6565b5b92915050565b7f4e487b7100000000000000000000000000000000000000000000000000000000600052603160045260246000fd5b7f416363657373436f6e74726f6c3a2063616c6c6572206973206e6f7420616e2060008201527f61646d696e000000000000000000000000000000000000000000000000000000602082015250565b6000611ddc602583611805565b9150611de782611d80565b604082019050919050565b60006020820190508181036000830152611e0b81611dcf565b9050919050565b7f4e487b7100000000000000000000000000000000000000000000000000000000600052602260045260246000fd5b60006002820490506001821680611e5957607f821691505b602082108103611e6c57611e6b611e12565b5b50919050565b60008190508160005260206000209050919050565b60006020601f8301049050919050565b600082821b905092915050565b600060088302611ed47fffffffffffffffffffffffffffffffffffffffffffffffffffffffffffffffff82611e97565b611ede8683611e97565b95508019841693508086168417925050509392505050565b6000819050919050565b6000611f1b611f16611f1184611574565b611ef6565b611574565b9050919050565b6000819050919050565b611f3583611f00565b611f49611f4182611f22565b848454611ea4565b825550505050565b600090565b611f5e611f51565b611f69818484611f2c565b505050565b5b81811015611f8d57611f82600082611f56565b600181019050611f6f565b5050565b601f821115611fd257611fa381611e72565b611fac84611e87565b81016020851015611fbb578190505b611fcf611fc785611e87565b830182611f6e565b50505b505050565b600082821c905092915050565b6000611ff560001984600802611fd7565b1980831691505092915050565b600061200e8383611fe4565b9150826002028217905092915050565b612027826117fa565b67ffffffffffffffff8111156120405761203f61162f565b5b61204a8254611e41565b612055828285611f91565b600060209050601f8311600181146120885760008415612076578287015190505b6120808582612002565b8655506120e8565b601f19841661209686611e72565b60005b828110156120be57848901518255600182019150602085019450602081019050612099565b868310156120db57848901516120d7601f891682611fe4565b8355505b6001600288020188555050505b505050505050565b7f4f776e61626c653a206e6577206f776e657220697320746865207a65726f206160008201527f6464726573730000000000000000000000000000000000000000000000000000602082015250565b600061214c602683611805565b9150612157826120f0565b604082019050919050565b6000602082019050818103600083015261217b8161213f565b9050919050565b7f4f776e61626c653a2063616c6c6572206973206e6f7420746865206f776e6572600082015250565b60006121b8602083611805565b91506121c382612182565b602082019050919050565b600060208201905081810360008301526121e7816121ab565b905091905056fea2646970667358221220cb571b2ec1d7ef6562bbc17773b503a0482c9a4c88d510a8991378c312e827ca64736f6c63430008130033",
  "immutableReferences": {},
  "source": "// SPDX-License-Identifier: MIT\r\npragma solidity ^0.8.0;\r\n\r\nimport \"./AccessControl.sol\";\r\n\r\ncontract Project is AccessControl {\r\n    uint256 private _projectIdCounter;\r\n\r\n    struct ProjectInfo {\r\n        string name;\r\n        string description;\r\n        address[] members;\r\n        string ipfsHash;\r\n    }\r\n\r\n    mapping(uint256 => ProjectInfo) private _projects;\r\n    mapping(uint256 => mapping(address => bool)) private _projectMembers;\r\n\r\n    function createProject(string memory name, string memory description, string memory ipfsHash) public returns (uint256) {\r\n        uint256 projectId = _projectIdCounter;\r\n        _projects[projectId] = ProjectInfo(name, description, new address[](0), ipfsHash);\r\n        _projectMembers[projectId][msg.sender] = true;\r\n        _projects[projectId].members.push(msg.sender);\r\n        _projectIdCounter++;\r\n        return projectId;\r\n    }\r\n\r\n    function addMember(uint256 projectId, address member) public {\r\n        require(_projectMembers[projectId][msg.sender], \"Not a project member\");\r\n        _projectMembers[projectId][member] = true;\r\n        _projects[projectId].members.push(member);\r\n    }\r\n\r\n    function removeMember(uint256 projectId, address member) public {\r\n        require(_projectMembers[projectId][msg.sender], \"Not a project member\");\r\n        require(member != msg.sender, \"Cannot remove yourself\");\r\n        _projectMembers[projectId][member] = false;\r\n\r\n        uint256 index;\r\n        bool found;\r\n        for (uint256 i = 0; i < _projects[projectId].members.length; i++) {\r\n            if (_projects[projectId].members[i] == member) {\r\n                index = i;\r\n                found = true;\r\n                break;\r\n            }\r\n        }\r\n\r\n        if (found) {\r\n            _projects[projectId].members[index] = _projects[projectId].members[_projects[projectId].members.length - 1];\r\n            _projects[projectId].members.pop();\r\n        }\r\n    }\r\n\r\n    function updateProjectInfo(uint256 projectId, string memory newName, string memory newDescription, string memory newIpfsHash) public {\r\n        require(_projectMembers[projectId][msg.sender], \"Not a project member\");\r\n        _projects[projectId].name = newName;\r\n        _projects[projectId].description = newDescription;\r\n        _projects[projectId].ipfsHash = newIpfsHash;\r\n    }\r\n\r\n    function getProjectInfo(uint256 projectId) public view returns (ProjectInfo memory) {\r\n        return _projects[projectId];\r\n    }\r\n\r\n    function isProjectMember(uint256 projectId, address member) public view returns (bool) {\r\n        return _projectMembers[projectId][member];\r\n    }\r\n}",
  "sourcePath": "C:\\Users\\emdd0\\metados\\contracts\\Project.sol",
  "compiler": {
    "name": "solc",
    "version": "0.8.19+commit.7dd6d404.Emscripten.clang"
  },
  "schemaVersion": "3.4.13",
  "updatedAt": "2023-05-04T03:12:51.946Z",
  "devdoc": {
    "kind": "dev",
    "methods": {
      "owner()": {
        "details": "Returns the address of the current owner."
      },
      "renounceOwnership()": {
        "details": "Leaves the contract without owner. It will not be possible to call `onlyOwner` functions anymore. Can only be called by the current owner. NOTE: Renouncing ownership will leave the contract without an owner, thereby removing any functionality that is only available to the owner."
      },
      "transferOwnership(address)": {
        "details": "Transfers ownership of the contract to a new account (`newOwner`). Can only be called by the current owner."
      }
    },
    "version": 1
  },
  "userdoc": {
    "kind": "user",
    "methods": {},
    "version": 1
  }
}