{
  "contractName": "StudentGroup",
  "abi": [
    {
      "anonymous": false,
      "inputs": [
        {
          "indexed": true,
          "internalType": "address",
          "name": "account",
          "type": "address"
        }
      ],
      "name": "AdminAdded",
      "type": "event"
    },
    {
      "anonymous": false,
      "inputs": [
        {
          "indexed": true,
          "internalType": "address",
          "name": "account",
          "type": "address"
        }
      ],
      "name": "AdminRemoved",
      "type": "event"
    },
    {
      "anonymous": false,
      "inputs": [
        {
          "indexed": true,
          "internalType": "uint256",
          "name": "fileId",
          "type": "uint256"
        },
        {
          "indexed": false,
          "internalType": "string",
          "name": "ipfsHash",
          "type": "string"
        }
      ],
      "name": "FileHashAdded",
      "type": "event"
    },
    {
      "anonymous": false,
      "inputs": [
        {
          "indexed": true,
          "internalType": "address",
          "name": "previousOwner",
          "type": "address"
        },
        {
          "indexed": true,
          "internalType": "address",
          "name": "newOwner",
          "type": "address"
        }
      ],
      "name": "OwnershipTransferred",
      "type": "event"
    },
    {
      "inputs": [
        {
          "internalType": "address",
          "name": "account",
          "type": "address"
        }
      ],
      "name": "addAdmin",
      "outputs": [],
      "stateMutability": "nonpayable",
      "type": "function"
    },
    {
      "inputs": [
        {
          "internalType": "string",
          "name": "ipfsHash",
          "type": "string"
        }
      ],
      "name": "addFileHash",
      "outputs": [
        {
          "internalType": "uint256",
          "name": "",
          "type": "uint256"
        }
      ],
      "stateMutability": "nonpayable",
      "type": "function"
    },
    {
      "inputs": [
        {
          "internalType": "uint256",
          "name": "",
          "type": "uint256"
        }
      ],
      "name": "fileHashes",
      "outputs": [
        {
          "internalType": "string",
          "name": "",
          "type": "string"
        }
      ],
      "stateMutability": "view",
      "type": "function"
    },
    {
      "inputs": [
        {
          "internalType": "uint256",
          "name": "fileId",
          "type": "uint256"
        }
      ],
      "name": "getFileHash",
      "outputs": [
        {
          "internalType": "string",
          "name": "",
          "type": "string"
        }
      ],
      "stateMutability": "view",
      "type": "function"
    },
    {
      "inputs": [
        {
          "internalType": "address",
          "name": "account",
          "type": "address"
        }
      ],
      "name": "isAdmin",
      "outputs": [
        {
          "internalType": "bool",
          "name": "",
          "type": "bool"
        }
      ],
      "stateMutability": "view",
      "type": "function"
    },
    {
      "inputs": [],
      "name": "owner",
      "outputs": [
        {
          "internalType": "address",
          "name": "",
          "type": "address"
        }
      ],
      "stateMutability": "view",
      "type": "function"
    },
    {
      "inputs": [
        {
          "internalType": "address",
          "name": "account",
          "type": "address"
        }
      ],
      "name": "removeAdmin",
      "outputs": [],
      "stateMutability": "nonpayable",
      "type": "function"
    },
    {
      "inputs": [],
      "name": "renounceOwnership",
      "outputs": [],
      "stateMutability": "nonpayable",
      "type": "function"
    },
    {
      "inputs": [
        {
          "internalType": "address",
          "name": "newOwner",
          "type": "address"
        }
      ],
      "name": "transferOwnership",
      "outputs": [],
      "stateMutability": "nonpayable",
      "type": "function"
    },
    {
      "inputs": [
        {
          "internalType": "string",
          "name": "name",
          "type": "string"
        },
        {
          "internalType": "string",
          "name": "ipfsHash",
          "type": "string"
        }
      ],
      "name": "createGroup",
      "outputs": [
        {
          "internalType": "uint256",
          "name": "",
          "type": "uint256"
        }
      ],
      "stateMutability": "nonpayable",
      "type": "function"
    },
    {
      "inputs": [
        {
          "internalType": "uint256",
          "name": "groupId",
          "type": "uint256"
        },
        {
          "internalType": "address",
          "name": "member",
          "type": "address"
        }
      ],
      "name": "addGroupMember",
      "outputs": [],
      "stateMutability": "nonpayable",
      "type": "function"
    },
    {
      "inputs": [
        {
          "internalType": "uint256",
          "name": "groupId",
          "type": "uint256"
        },
        {
          "internalType": "address",
          "name": "member",
          "type": "address"
        }
      ],
      "name": "removeGroupMember",
      "outputs": [],
      "stateMutability": "nonpayable",
      "type": "function"
    },
    {
      "inputs": [
        {
          "internalType": "uint256",
          "name": "groupId",
          "type": "uint256"
        },
        {
          "internalType": "string",
          "name": "newName",
          "type": "string"
        },
        {
          "internalType": "string",
          "name": "newIpfsHash",
          "type": "string"
        }
      ],
      "name": "updateGroupName",
      "outputs": [],
      "stateMutability": "nonpayable",
      "type": "function"
    },
    {
      "inputs": [
        {
          "internalType": "uint256",
          "name": "groupId",
          "type": "uint256"
        }
      ],
      "name": "getGroupInfo",
      "outputs": [
        {
          "components": [
            {
              "internalType": "string",
              "name": "name",
              "type": "string"
            },
            {
              "internalType": "address[]",
              "name": "members",
              "type": "address[]"
            },
            {
              "internalType": "string",
              "name": "ipfsHash",
              "type": "string"
            }
          ],
          "internalType": "struct StudentGroup.Group",
          "name": "",
          "type": "tuple"
        }
      ],
      "stateMutability": "view",
      "type": "function"
    },
    {
      "inputs": [
        {
          "internalType": "uint256",
          "name": "groupId",
          "type": "uint256"
        },
        {
          "internalType": "address",
          "name": "member",
          "type": "address"
        }
      ],
      "name": "isGroupMember",
      "outputs": [
        {
          "internalType": "bool",
          "name": "",
          "type": "bool"
        }
      ],
      "stateMutability": "view",
      "type": "function"
    }
  ],
  "bytecode": "0x608060405234801561001057600080fd5b5061002d61002261003a60201b60201c565b61004260201b60201c565b6000600381905550610106565b600033905090565b60008060009054906101000a900473ffffffffffffffffffffffffffffffffffffffff169050816000806101000a81548173ffffffffffffffffffffffffffffffffffffffff021916908373ffffffffffffffffffffffffffffffffffffffff1602179055508173ffffffffffffffffffffffffffffffffffffffff168173ffffffffffffffffffffffffffffffffffffffff167f8be0079c531659141344cd1fd0a4f28419497f9722a3daafe3b4186f6b6457e060405160405180910390a35050565b6120d080620001166000396000f3fe608060405234801561001057600080fd5b50600436106100f55760003560e01c80638471cf8611610097578063bfeb560711610066578063bfeb56071461026e578063c110f4c91461029e578063eb131135146102ce578063f2fde38b146102fe576100f5565b80638471cf86146101d45780638da5cb5b146101f057806399d4360f1461020e578063ba89949e1461023e576100f5565b806324d7806c116100d357806324d7806c1461016257806352b807f11461019257806370480275146101ae578063715018a6146101ca576100f5565b80631785f53c146100fa5780631e4a97dd146101165780631e9ff86014610146575b600080fd5b610114600480360381019061010f9190611436565b61031a565b005b610130600480360381019061012b91906115a9565b61032e565b60405161013d919061163a565b60405180910390f35b610160600480360381019061015b9190611681565b6104fb565b005b61017c60048036038101906101779190611436565b6105e5565b6040516101899190611727565b60405180910390f35b6101ac60048036038101906101a79190611742565b61063b565b005b6101c860048036038101906101c39190611436565b6107bc565b005b6101d26107d0565b005b6101ee60048036038101906101e99190611742565b6107e4565b005b6101f8610b74565b6040516102059190611791565b60405180910390f35b610228600480360381019061022391906117ac565b610b9d565b6040516102359190611974565b60405180910390f35b61025860048036038101906102539190611996565b610d7c565b604051610265919061163a565b60405180910390f35b61028860048036038101906102839190611742565b610e47565b6040516102959190611727565b60405180910390f35b6102b860048036038101906102b391906117ac565b610eaf565b6040516102c59190611a29565b60405180910390f35b6102e860048036038101906102e391906117ac565b610f4f565b6040516102f59190611a29565b60405180910390f35b61031860048036038101906103139190611436565b610ff4565b005b610322611077565b61032b816110f5565b50565b60008060045490506040518060600160405280858152602001600067ffffffffffffffff8111156103625761036161147e565b5b6040519080825280602002602001820160405280156103905781602001602082028036833780820191505090505b508152602001848152506005600083815260200190815260200160002060008201518160000190816103c29190611c57565b5060208201518160010190805190602001906103df9291906112fc565b5060408201518160020190816103f59190611c57565b5090505060016006600083815260200190815260200160002060003373ffffffffffffffffffffffffffffffffffffffff1673ffffffffffffffffffffffffffffffffffffffff16815260200190815260200160002060006101000a81548160ff02191690831515021790555060056000828152602001908152602001600020600101339080600181540180825580915050600190039060005260206000200160009091909190916101000a81548173ffffffffffffffffffffffffffffffffffffffff021916908373ffffffffffffffffffffffffffffffffffffffff160217905550600460008154809291906104ec90611d58565b91905055508091505092915050565b6006600084815260200190815260200160002060003373ffffffffffffffffffffffffffffffffffffffff1673ffffffffffffffffffffffffffffffffffffffff16815260200190815260200160002060009054906101000a900460ff16610598576040517f08c379a000000000000000000000000000000000000000000000000000000000815260040161058f90611dec565b60405180910390fd5b816005600085815260200190815260200160002060000190816105bb9190611c57565b50806005600085815260200190815260200160002060020190816105df9190611c57565b50505050565b6000600160008373ffffffffffffffffffffffffffffffffffffffff1673ffffffffffffffffffffffffffffffffffffffff16815260200190815260200160002060009054906101000a900460ff169050919050565b6006600083815260200190815260200160002060003373ffffffffffffffffffffffffffffffffffffffff1673ffffffffffffffffffffffffffffffffffffffff16815260200190815260200160002060009054906101000a900460ff166106d8576040517f08c379a00000000000000000000000000000000000000000000000000000000081526004016106cf90611dec565b60405180910390fd5b60016006600084815260200190815260200160002060008373ffffffffffffffffffffffffffffffffffffffff1673ffffffffffffffffffffffffffffffffffffffff16815260200190815260200160002060006101000a81548160ff02191690831515021790555060056000838152602001908152602001600020600101819080600181540180825580915050600190039060005260206000200160009091909190916101000a81548173ffffffffffffffffffffffffffffffffffffffff021916908373ffffffffffffffffffffffffffffffffffffffff1602179055505050565b6107c4611077565b6107cd81611193565b50565b6107d8611077565b6107e26000611230565b565b6006600083815260200190815260200160002060003373ffffffffffffffffffffffffffffffffffffffff1673ffffffffffffffffffffffffffffffffffffffff16815260200190815260200160002060009054906101000a900460ff16610881576040517f08c379a000000000000000000000000000000000000000000000000000000000815260040161087890611dec565b60405180910390fd5b3373ffffffffffffffffffffffffffffffffffffffff168173ffffffffffffffffffffffffffffffffffffffff16036108ef576040517f08c379a00000000000000000000000000000000000000000000000000000000081526004016108e690611e58565b60405180910390fd5b60006006600084815260200190815260200160002060008373ffffffffffffffffffffffffffffffffffffffff1673ffffffffffffffffffffffffffffffffffffffff16815260200190815260200160002060006101000a81548160ff02191690831515021790555060008060005b6005600086815260200190815260200160002060010180549050811015610a23578373ffffffffffffffffffffffffffffffffffffffff166005600087815260200190815260200160002060010182815481106109be576109bd611e78565b5b9060005260206000200160009054906101000a900473ffffffffffffffffffffffffffffffffffffffff1673ffffffffffffffffffffffffffffffffffffffff1603610a105780925060019150610a23565b8080610a1b90611d58565b91505061095e565b508015610b6e576005600085815260200190815260200160002060010160016005600087815260200190815260200160002060010180549050610a669190611ea7565b81548110610a7757610a76611e78565b5b9060005260206000200160009054906101000a900473ffffffffffffffffffffffffffffffffffffffff16600560008681526020019081526020016000206001018381548110610aca57610ac9611e78565b5b9060005260206000200160006101000a81548173ffffffffffffffffffffffffffffffffffffffff021916908373ffffffffffffffffffffffffffffffffffffffff16021790555060056000858152602001908152602001600020600101805480610b3857610b37611edb565b5b6001900381819060005260206000200160006101000a81549073ffffffffffffffffffffffffffffffffffffffff021916905590555b50505050565b60008060009054906101000a900473ffffffffffffffffffffffffffffffffffffffff16905090565b610ba5611386565b60056000838152602001908152602001600020604051806060016040529081600082018054610bd390611a7a565b80601f0160208091040260200160405190810160405280929190818152602001828054610bff90611a7a565b8015610c4c5780601f10610c2157610100808354040283529160200191610c4c565b820191906000526020600020905b815481529060010190602001808311610c2f57829003601f168201915b5050505050815260200160018201805480602002602001604051908101604052809291908181526020018280548015610cda57602002820191906000526020600020905b8160009054906101000a900473ffffffffffffffffffffffffffffffffffffffff1673ffffffffffffffffffffffffffffffffffffffff1681526020019060010190808311610c90575b50505050508152602001600282018054610cf390611a7a565b80601f0160208091040260200160405190810160405280929190818152602001828054610d1f90611a7a565b8015610d6c5780601f10610d4157610100808354040283529160200191610d6c565b820191906000526020600020905b815481529060010190602001808311610d4f57829003601f168201915b5050505050815250509050919050565b6000610d87336105e5565b610dc6576040517f08c379a0000000000000000000000000000000000000000000000000000000008152600401610dbd90611f7c565b60405180910390fd5b6000600354905082600260008381526020019081526020016000209081610ded9190611c57565b5060036000815480929190610e0190611d58565b9190505550807fd14e25ed71a404367461d2269b2413ef73b82aae51eaf6f172af69e3bcc32ee384604051610e369190611a29565b60405180910390a280915050919050565b60006006600084815260200190815260200160002060008373ffffffffffffffffffffffffffffffffffffffff1673ffffffffffffffffffffffffffffffffffffffff16815260200190815260200160002060009054906101000a900460ff16905092915050565b60026020528060005260406000206000915090508054610ece90611a7a565b80601f0160208091040260200160405190810160405280929190818152602001828054610efa90611a7a565b8015610f475780601f10610f1c57610100808354040283529160200191610f47565b820191906000526020600020905b815481529060010190602001808311610f2a57829003601f168201915b505050505081565b6060600260008381526020019081526020016000208054610f6f90611a7a565b80601f0160208091040260200160405190810160405280929190818152602001828054610f9b90611a7a565b8015610fe85780601f10610fbd57610100808354040283529160200191610fe8565b820191906000526020600020905b815481529060010190602001808311610fcb57829003601f168201915b50505050509050919050565b610ffc611077565b600073ffffffffffffffffffffffffffffffffffffffff168173ffffffffffffffffffffffffffffffffffffffff160361106b576040517f08c379a00000000000000000000000000000000000000000000000000000000081526004016110629061200e565b60405180910390fd5b61107481611230565b50565b61107f6112f4565b73ffffffffffffffffffffffffffffffffffffffff1661109d610b74565b73ffffffffffffffffffffffffffffffffffffffff16146110f3576040517f08c379a00000000000000000000000000000000000000000000000000000000081526004016110ea9061207a565b60405180910390fd5b565b6000600160008373ffffffffffffffffffffffffffffffffffffffff1673ffffffffffffffffffffffffffffffffffffffff16815260200190815260200160002060006101000a81548160ff0219169083151502179055508073ffffffffffffffffffffffffffffffffffffffff167fa3b62bc36326052d97ea62d63c3d60308ed4c3ea8ac079dd8499f1e9c4f80c0f60405160405180910390a250565b60018060008373ffffffffffffffffffffffffffffffffffffffff1673ffffffffffffffffffffffffffffffffffffffff16815260200190815260200160002060006101000a81548160ff0219169083151502179055508073ffffffffffffffffffffffffffffffffffffffff167f44d6d25963f097ad14f29f06854a01f575648a1ef82f30e562ccd3889717e33960405160405180910390a250565b60008060009054906101000a900473ffffffffffffffffffffffffffffffffffffffff169050816000806101000a81548173ffffffffffffffffffffffffffffffffffffffff021916908373ffffffffffffffffffffffffffffffffffffffff1602179055508173ffffffffffffffffffffffffffffffffffffffff168173ffffffffffffffffffffffffffffffffffffffff167f8be0079c531659141344cd1fd0a4f28419497f9722a3daafe3b4186f6b6457e060405160405180910390a35050565b600033905090565b828054828255906000526020600020908101928215611375579160200282015b828111156113745782518260006101000a81548173ffffffffffffffffffffffffffffffffffffffff021916908373ffffffffffffffffffffffffffffffffffffffff1602179055509160200191906001019061131c565b5b50905061138291906113a7565b5090565b60405180606001604052806060815260200160608152602001606081525090565b5b808211156113c05760008160009055506001016113a8565b5090565b6000604051905090565b600080fd5b600080fd5b600073ffffffffffffffffffffffffffffffffffffffff82169050919050565b6000611403826113d8565b9050919050565b611413816113f8565b811461141e57600080fd5b50565b6000813590506114308161140a565b92915050565b60006020828403121561144c5761144b6113ce565b5b600061145a84828501611421565b91505092915050565b600080fd5b600080fd5b6000601f19601f8301169050919050565b7f4e487b7100000000000000000000000000000000000000000000000000000000600052604160045260246000fd5b6114b68261146d565b810181811067ffffffffffffffff821117156114d5576114d461147e565b5b80604052505050565b60006114e86113c4565b90506114f482826114ad565b919050565b600067ffffffffffffffff8211156115145761151361147e565b5b61151d8261146d565b9050602081019050919050565b82818337600083830152505050565b600061154c611547846114f9565b6114de565b90508281526020810184848401111561156857611567611468565b5b61157384828561152a565b509392505050565b600082601f8301126115905761158f611463565b5b81356115a0848260208601611539565b91505092915050565b600080604083850312156115c0576115bf6113ce565b5b600083013567ffffffffffffffff8111156115de576115dd6113d3565b5b6115ea8582860161157b565b925050602083013567ffffffffffffffff81111561160b5761160a6113d3565b5b6116178582860161157b565b9150509250929050565b6000819050919050565b61163481611621565b82525050565b600060208201905061164f600083018461162b565b92915050565b61165e81611621565b811461166957600080fd5b50565b60008135905061167b81611655565b92915050565b60008060006060848603121561169a576116996113ce565b5b60006116a88682870161166c565b935050602084013567ffffffffffffffff8111156116c9576116c86113d3565b5b6116d58682870161157b565b925050604084013567ffffffffffffffff8111156116f6576116f56113d3565b5b6117028682870161157b565b9150509250925092565b60008115159050919050565b6117218161170c565b82525050565b600060208201905061173c6000830184611718565b92915050565b60008060408385031215611759576117586113ce565b5b60006117678582860161166c565b925050602061177885828601611421565b9150509250929050565b61178b816113f8565b82525050565b60006020820190506117a66000830184611782565b92915050565b6000602082840312156117c2576117c16113ce565b5b60006117d08482850161166c565b91505092915050565b600081519050919050565b600082825260208201905092915050565b60005b838110156118135780820151818401526020810190506117f8565b60008484015250505050565b600061182a826117d9565b61183481856117e4565b93506118448185602086016117f5565b61184d8161146d565b840191505092915050565b600081519050919050565b600082825260208201905092915050565b6000819050602082019050919050565b61188d816113f8565b82525050565b600061189f8383611884565b60208301905092915050565b6000602082019050919050565b60006118c382611858565b6118cd8185611863565b93506118d883611874565b8060005b838110156119095781516118f08882611893565b97506118fb836118ab565b9250506001810190506118dc565b5085935050505092915050565b60006060830160008301518482036000860152611933828261181f565b9150506020830151848203602086015261194d82826118b8565b91505060408301518482036040860152611967828261181f565b9150508091505092915050565b6000602082019050818103600083015261198e8184611916565b905092915050565b6000602082840312156119ac576119ab6113ce565b5b600082013567ffffffffffffffff8111156119ca576119c96113d3565b5b6119d68482850161157b565b91505092915050565b600082825260208201905092915050565b60006119fb826117d9565b611a0581856119df565b9350611a158185602086016117f5565b611a1e8161146d565b840191505092915050565b60006020820190508181036000830152611a4381846119f0565b905092915050565b7f4e487b7100000000000000000000000000000000000000000000000000000000600052602260045260246000fd5b60006002820490506001821680611a9257607f821691505b602082108103611aa557611aa4611a4b565b5b50919050565b60008190508160005260206000209050919050565b60006020601f8301049050919050565b600082821b905092915050565b600060088302611b0d7fffffffffffffffffffffffffffffffffffffffffffffffffffffffffffffffff82611ad0565b611b178683611ad0565b95508019841693508086168417925050509392505050565b6000819050919050565b6000611b54611b4f611b4a84611621565b611b2f565b611621565b9050919050565b6000819050919050565b611b6e83611b39565b611b82611b7a82611b5b565b848454611add565b825550505050565b600090565b611b97611b8a565b611ba2818484611b65565b505050565b5b81811015611bc657611bbb600082611b8f565b600181019050611ba8565b5050565b601f821115611c0b57611bdc81611aab565b611be584611ac0565b81016020851015611bf4578190505b611c08611c0085611ac0565b830182611ba7565b50505b505050565b600082821c905092915050565b6000611c2e60001984600802611c10565b1980831691505092915050565b6000611c478383611c1d565b9150826002028217905092915050565b611c60826117d9565b67ffffffffffffffff811115611c7957611c7861147e565b5b611c838254611a7a565b611c8e828285611bca565b600060209050601f831160018114611cc15760008415611caf578287015190505b611cb98582611c3b565b865550611d21565b601f198416611ccf86611aab565b60005b82811015611cf757848901518255600182019150602085019450602081019050611cd2565b86831015611d145784890151611d10601f891682611c1d565b8355505b6001600288020188555050505b505050505050565b7f4e487b7100000000000000000000000000000000000000000000000000000000600052601160045260246000fd5b6000611d6382611621565b91507fffffffffffffffffffffffffffffffffffffffffffffffffffffffffffffffff8203611d9557611d94611d29565b5b600182019050919050565b7f4e6f7420612067726f7570206d656d6265720000000000000000000000000000600082015250565b6000611dd66012836119df565b9150611de182611da0565b602082019050919050565b60006020820190508181036000830152611e0581611dc9565b9050919050565b7f43616e6e6f742072656d6f766520796f757273656c6600000000000000000000600082015250565b6000611e426016836119df565b9150611e4d82611e0c565b602082019050919050565b60006020820190508181036000830152611e7181611e35565b9050919050565b7f4e487b7100000000000000000000000000000000000000000000000000000000600052603260045260246000fd5b6000611eb282611621565b9150611ebd83611621565b9250828203905081811115611ed557611ed4611d29565b5b92915050565b7f4e487b7100000000000000000000000000000000000000000000000000000000600052603160045260246000fd5b7f416363657373436f6e74726f6c3a2063616c6c6572206973206e6f7420616e2060008201527f61646d696e000000000000000000000000000000000000000000000000000000602082015250565b6000611f666025836119df565b9150611f7182611f0a565b604082019050919050565b60006020820190508181036000830152611f9581611f59565b9050919050565b7f4f776e61626c653a206e6577206f776e657220697320746865207a65726f206160008201527f6464726573730000000000000000000000000000000000000000000000000000602082015250565b6000611ff86026836119df565b915061200382611f9c565b604082019050919050565b6000602082019050818103600083015261202781611feb565b9050919050565b7f4f776e61626c653a2063616c6c6572206973206e6f7420746865206f776e6572600082015250565b60006120646020836119df565b915061206f8261202e565b602082019050919050565b6000602082019050818103600083015261209381612057565b905091905056fea26469706673582212202dc975576f43068f30897978d8abc023ccfb59d5a54b2e97780b445471e9192e64736f6c63430008130033",
  "immutableReferences": {},
  "source": "// SPDX-License-Identifier: MIT\r\npragma solidity ^0.8.0;\r\n\r\nimport \"./AccessControl.sol\";\r\n\r\ncontract StudentGroup is AccessControl {\r\n    uint256 private _groupIdCounter;\r\n\r\n    struct Group {\r\n        string name;\r\n        address[] members;\r\n        string ipfsHash;\r\n    }\r\n\r\n    mapping(uint256 => Group) private _groups;\r\n    mapping(uint256 => mapping(address => bool)) private _groupMembers;\r\n\r\n    function createGroup(string memory name, string memory ipfsHash) public returns (uint256) {\r\n        uint256 groupId = _groupIdCounter;\r\n        _groups[groupId] = Group(name, new address[](0), ipfsHash);\r\n        _groupMembers[groupId][msg.sender] = true;\r\n        _groups[groupId].members.push(msg.sender);\r\n        _groupIdCounter++;\r\n        return groupId;\r\n    }\r\n\r\n    function addGroupMember(uint256 groupId, address member) public {\r\n        require(_groupMembers[groupId][msg.sender], \"Not a group member\");\r\n        _groupMembers[groupId][member] = true;\r\n        _groups[groupId].members.push(member);\r\n    }\r\n\r\n    function removeGroupMember(uint256 groupId, address member) public {\r\n        require(_groupMembers[groupId][msg.sender], \"Not a group member\");\r\n        require(member != msg.sender, \"Cannot remove yourself\");\r\n        _groupMembers[groupId][member] = false;\r\n\r\n        uint256 index;\r\n        bool found;\r\n        for (uint256 i = 0; i < _groups[groupId].members.length; i++) {\r\n            if (_groups[groupId].members[i] == member) {\r\n                index = i;\r\n                found = true;\r\n                break;\r\n            }\r\n        }\r\n\r\n        if (found) {\r\n            _groups[groupId].members[index] = _groups[groupId].members[_groups[groupId].members.length - 1];\r\n            _groups[groupId].members.pop();\r\n        }\r\n    }\r\n\r\n    function updateGroupName(uint256 groupId, string memory newName, string memory newIpfsHash) public {\r\n        require(_groupMembers[groupId][msg.sender], \"Not a group member\");\r\n        _groups[groupId].name = newName;\r\n        _groups[groupId].ipfsHash = newIpfsHash;\r\n    }\r\n\r\n    function getGroupInfo(uint256 groupId) public view returns (Group memory) {\r\n        return _groups[groupId];\r\n    }\r\n\r\n    function isGroupMember(uint256 groupId, address member) public view returns (bool) {\r\n        return _groupMembers[groupId][member];\r\n    }\r\n}",
  "sourcePath": "C:\\Users\\emdd0\\metados\\contracts\\StudentGroup.sol",
  "compiler": {
    "name": "solc",
    "version": "0.8.19+commit.7dd6d404.Emscripten.clang"
  },
  "schemaVersion": "3.4.13",
  "updatedAt": "2023-05-04T03:12:51.959Z",
  "devdoc": {
    "kind": "dev",
    "methods": {
      "owner()": {
        "details": "Returns the address of the current owner."
      },
      "renounceOwnership()": {
        "details": "Leaves the contract without owner. It will not be possible to call `onlyOwner` functions anymore. Can only be called by the current owner. NOTE: Renouncing ownership will leave the contract without an owner, thereby removing any functionality that is only available to the owner."
      },
      "transferOwnership(address)": {
        "details": "Transfers ownership of the contract to a new account (`newOwner`). Can only be called by the current owner."
      }
    },
    "version": 1
  },
  "userdoc": {
    "kind": "user",
    "methods": {},
    "version": 1
  }
}